:020000040800F2
:10000000A0120020A5010008AD010008AF01000802
:10001000B1010008B3010008B501000800000000AC
:1000200000000000000000000000000001010008C6
:10003000B90100080000000045010008512A00082D
:10004000BF010008BF010008BF010008BF01000890
:10005000BF010008BF010008BF010008BF01000880
:10006000BF010008BF010008BF010008BF01000870
:10007000BF010008BF010008BF010008BF01000860
:10008000BF010008BF010008BF010008BF01000850
:10009000BF010008BF010008BF010008BF01000840
:1000A000BF010008BF010008BF010008BF01000830
:1000B000BF010008BF010008BF010008BF01000820
:1000C000BF010008BF010008BF010008BF01000810
:1000D000BF010008BF010008BF010008BF01000800
:1000E000BF010008BF010008BF010008DFF80CD005
:1000F00000F0C0F900480047392E0008A012002087
:10010000204B19680868B0E8F00F80F30988BFF346
:100110006F8F4FF0000080F311884EF00D0E704786
:100120000000000006480068006880F3088862B696
:1001300061B6BFF34F8FBFF36F8F00DF00BF00BF0B
:1001400008ED00E0EFF30980BFF36F8F0D4B1A68E5
:1001500020E9F00F106008B54FF0500080F31188CF
:1001600003F0A2F94FF0000080F31188BDE80840C9
:1001700019680868B0E8F00F80F30988BFF36F8F43
:10018000704700BF14000020EFF311804FF05001C2
:1001900081F31188704780F311887047EFF3058071
:1001A000704700000648804706480047FEE7FEE724
:1001B000FEE7FEE7FEE7FEE7FEE7FEE7FEE7FEE717
:1001C000C12A0008ED000008202A04DB203A21FAA9
:1001D00002F00021704721FA02F3D040C2F1200260
:1001E0009140084319467047D2B201E000F8012B54
:1001F000491EFBD270470022F6E710B513460A46A7
:1002000004461946FFF7F0FF204610BD2DE9FE4FCA
:1002100081EA030404F0004421F0004100944FF00F
:10022000000B23F0004350EA01045ED052EA0304BD
:100230005BD0C3F30A54C1F30A552C44A4F2F3343F
:100240000194A0FB0254C1F3130141F48011C3F3E4
:10025000130343F4801301FB024400FB034E840AA2
:10026000970A44EA815447EA8357A4FB076802953A
:100270008D0A05FB07854FEA932C04FB0C542705D8
:10028000029D4FEA065847EA1637B5EB08056EEBB4
:10029000070C870E920E47EA811742EA8312A7FBEA
:1002A0000201B6EB0B0164EB00042B0D43EA0C33A7
:1002B0005E1844EB1C50DA465146E7FB0201C5F3D9
:1002C00013044FEA0B3343EA14534FEA0432019C00
:1002D00043EA0603A4F10C040294009CCDE900B4A7
:1002E00000F079F803B0BDE8F08F00200146F9E78F
:1002F0000EB5C10F80EAE0700844CA07002140F241
:1003000033438DE80E000A460B4600F064F803B054
:1003100000BD01F0004330B421F0004150EA010279
:1003200006D00A0DA2F56072C1F31301002A02DCA7
:1003300030BC00207047440F44EAC104C100E018FB
:1003400030BC00EBC250AFF300800029A8BF70475B
:10035000401C490008BF20F00100704710B4B0FAFB
:1003600080FC00FA0CF050EA010404BF10BC704796
:1003700049B1CCF1200421FA04F411FA0CF118BFB0
:10038000012121430843A3EB0C01CB1D4FEA00617F
:100390004FEA102042BF002010BC704700EBC35052
:1003A00010440029A4BF10BC7047401C490008BF7E
:1003B00020F0010010BC704710B5141E73F100044A
:1003C00008DA401C41F1000192185B411A4301D147
:1003D00020F0010010BD2DE9F04D92469B4611B171
:1003E000B1FA81F202E0B0FA80F22032904600F0D9
:1003F00053F804460F4640EA0A0041EA0B0153460F
:100400005A46084313D0114653EA010019D0C8F1E7
:1004100040025046FFF7D8FE05460E465046594664
:10042000424600F039F8084305D0012004E0204698
:100430003946BDE8F08D0020054346EAE0762C43BE
:1004400037430A986305E40AA0EB08000022FD0A7E
:1004500044EA47540A3002D500200146E9E7010585
:1004600010196941DDE9084500196941BDE8F04D01
:10047000A2E70000064C074D06E0E06840F00103EB
:1004800094E8070098471034AC42F6D3FFF732FEE9
:100490005838000878380008202A04DB203A00FA8F
:1004A00002F1002070479140C2F1200320FA03F3CB
:1004B00019439040704770B504462068816811F078
:1004C000010F1FD0816821F00101816000F0DEFB87
:1004D00005462068806810F0010F13D000F0D6FBAD
:1004E000401B022809D9A06A40F01000A062E06A0F
:1004F00040F00100E062012070BD2068806810F0CB
:10050000010FEBD1002070BD0449054A31F81010ED
:1005100052F82000002200F0B2BB0000243800088E
:10052000040000200449054A31F8101052F8200058
:10053000012200F0A4BB00002438000804000020C1
:1005400010B500F0A7F800F04FF8CC2000F0BCF890
:10055000442000F0B9F800F09DF800F045F8CC20F8
:1005600000F0B2F8BE2000F0AFF800F069F80446E1
:1005700000F066F8000201B251EA0400064C01D511
:10058000C043401CFFF7B4FE00222346FFF73EFEA7
:10059000BDE81040FFF7BDBE0000E43F10B500F01D
:1005A00079F8BDE8104000F01FB800001FB500202A
:1005B000019002900390042000906946014800F0E9
:1005C00065FA1FBD000801401FB5002002900420FD
:1005D000009001200190032003906946014800F03B
:1005E00055FA1FBD0008014070B50024FFF7DEFF7B
:1005F000124D04E0641CE4B2012000F095F80421DF
:10060000284600F035FB10B1642CF3D30FE0642CC6
:100610000DD2002404E0641CE4B2012000F084F850
:100620000421284600F024FB18B1F02C04D301204B
:1006300070BDF02CEFD3FAE7002070BD0008014038
:100640002DE9F0410026124F354600BFFFF7BCFFF1
:1006500000220421384600F012FB0A2000F064F862
:10066000FFF7A4FF0421384600F002FB01280DD05B
:1006700000242D2000F058F8AC4034436D1CEDB23E
:10068000E6B2082DE2D33046BDE8F0810124F0E760
:100690000008014010B5FFF797FF0A4C0022042123
:1006A000204600F0ECFA40F2EE2000F03DF8012286
:1006B0000421204600F0E3FABDE810400F2000F0CE
:1006C00033B800000008014070B50546FFF77CFF15
:1006D000144E002415F0010F4FEA55054FF00002AB
:1006E0004FF0040130460BD000F0C9FA082000F0AA
:1006F0001BF801220421304600F0C1FA3A200AE03A
:1007000000F0BDFA462000F00FF801220421304627
:1007100000F0B5FA022000F007F8641CE4B2082CDF
:10072000D8D370BD000801402DE9F0414FF0E0251D
:100730006F6900EBC006002402F0AEFEA869A9694B
:100740008142FCD002D2A0EB010002E0A7EB010243
:10075000104404440846B442F1D3BDE8F04103F02C
:1007600009B800002DE9F8014FF0000C00240094B6
:1007700090F82420012A20D0012280F824204A6801
:100780001F264FF47875072A1BD203685F6B95FA12
:10079000A5F8521EB8FA88F802FB08F806FA08F61F
:1007A00027EA060695FAA5F5B5FA85F50F686A43B6
:1007B00007FA02F232435A6334E0BDE8F80102203E
:1007C00070470D2A17D203681F6B95FAA5F8D21F40
:1007D000B8FA88F802FB08F806FA08F627EA0606CF
:1007E00095FAA5F5B5FA85F50F686A4307FA02F29E
:1007F00032431A6316E00368DF6A95FAA5F80D3AEA
:10080000B8FA88F802FB08F806FA08F627EA06069E
:1008100095FAA5F5B5FA85F50F686A4307FA02F26D
:100820003243DA620A68382507260A2A17D3036892
:10083000DF6895FAA5F80A3AB8FA88F802FB08F8D2
:1008400006FA08F627EA060695FAA5F5B5FA85F53B
:100850008F686A4307FA02F23243DA6015E00368F0
:100860001F6995FAA5F8B8FA88F802FB08F806FAA5
:1008700008F627EA060695FAA5F5B5FA85F58F6814
:100880006A4307FA02F232431A610A68102A01D059
:10089000112A0BD10268A2F18043B3F592330BD039
:1008A000816A41F0200181624FF0010C80F8244000
:1008B000BDE8F80160467047936813F4000FF5D166
:1008C000936843F40003936009681029EED1094945
:1008D000094A0968B1FBF2F101EB8101490000917D
:1008E00000990029E2D00099491E00910099002941
:1008F000F9D1DBE70000002040420F0070B504464C
:100900000025002C03D0A06A002610B107E00120CA
:1009100070BDE66284F82460204600F08DF8204621
:10092000FFF7C9FD0146A06A00F0100252EA01007B
:1009300006D0A06A40F01000A0620121084670BDF8
:10094000A06A20F4885040F00200A062E26960686A
:10095000E3680243022090FAA0F0B0FA80F003FAB4
:1009600000F00243A068B0F5807F08D0012806D0CF
:100970000020D4F814C0BCF1010F03D00BE04FF4F9
:100980008070F6E7E3B1A36A43F02003A362E36A51
:1009900043F00103E3622368D3F804C02CF4694CEC
:1009A0004CEA0000586020688368DFF884C003EADE
:1009B0000C0313438360A068B0F5807F0ED017E06E
:1009C000A3694FF4604C9CFAACFC5B1EBCFA8CFC37
:1009D00003FA0CF3184340F40060DCE720694FF49D
:1009E000700393FAA3F3401EB3FA83F300FA03F5FE
:1009F0002068C36A23F470032B43C36220688068B5
:100A00000C4B1840904207D1E662A06A20F0020029
:100A100040F00100A06291E7A06A20F0020040F0DF
:100A20001000A062E06A40F00100E062012185E769
:100A3000FDF7E1FFFE0E1FFF00B587B00068A0F1D3
:100A40008041B1F592310FD10848816941F40071BC
:100A50008161806900F4007001900320029003908E
:100A600002A9034800F012F807B000BD00100240D0
:100A70000008014031B500F009F9044600F006F91C
:100A80000099001B8842F9D338BD00002DE9F84FCA
:100A900000239C46DFF8CC810F2708F1040909F1F7
:100AA000040A0AF1040B012202FA0CF60A68324029
:100AB000B2427DD1DFF8B0E14C68A4EB0E0574457D
:100AC0002BD00DDC032C34D005DC34B3012C19D031
:100AD000022C2FD11BE0112C16D0122C2AD119E098
:100AE000B5F5881F19D006DCB5F5803F15D0B5F5F2
:100AF000801F1FD111E0B5F5001F0ED0B5F5041F02
:100B000018D10AE0CB6815E0CB681B1D12E0CB685A
:100B100008330FE0CB680C330CE08B6823B1012B5A
:100B200004D00823466105E0042303E0082306619E
:100B300000E00023B2F5807F01D2054601E000F11C
:100B4000040502D24FEA8C0403E0ACF108044FEA3A
:100B500084042E6807FA04FE26EA0E0603FA04F45B
:100B600046EA04042C604C6814F0805F72D03F4C5D
:100B7000A56945F00105A561A46904F0010400948C
:100B80002CF0030404F1804404F58034A6684FEA95
:100B90008C754FEA157507FA05FE26EA0E0EA0F1D0
:100BA0008046B6F584361AD0B6F5806619D000E0D6
:100BB00050E0B6F5806616D0B6F5806615D00426EE
:100BC00006FA05F545EA0E05A5604C6814F4803F69
:100BD0000DD0D8F800401443C8F800400CE00026BF
:100BE000EEE70126ECE70226EAE70326E8E7D8F875
:100BF00000409443C8F800404C6814F4003F05D00E
:100C0000D9F800401443C9F8004004E0D9F8004086
:100C10009443C9F800404C6814F4801F05D0DAF8FA
:100C200000401443CAF8004004E0DAF8004094435E
:100C3000CAF800404C6814F4001F05D0DBF80040EF
:100C40002243CBF8002005E0DBF8004024EA020252
:100C5000CBF800200CF1010CBCF1100FFFF423AF16
:100C6000BDE8F88F000401400000111000100240A0
:100C70008068084201D00120704700207047002A98
:100C800001D00161704709040161704701480068A3
:100C9000704700000C00002010B50446002C0AD05C
:100CA0002068C16811F0010F07D0C06810F0020F72
:100CB00003D0012010BD012010BD607B20B90020B1
:100CC0002073204600F018F802206073216845F276
:100CD0005550086020684168626821F0070111439F
:100CE000416020688168A2686FF30B011143816045
:100CF00001206073002010BD7047000002480168A9
:100D0000491C0160704700000C00002010B5074826
:100D1000016841F010010160032000F06BF8002031
:100D200000F006F800F016F8002010BD0020024088
:100D300010B5044600F066FB4FF47A72B0FBF2F097
:100D400001F0E6FA00222146501E00F01FF80020B4
:100D500010BD000008B50B48816941F001018161B7
:100D6000806900F001000090032000F043F80022A9
:100D70001146501E00F00AF80348416821F0E06176
:100D8000416008BD001002400000014010B4184B43
:100D90001B68C3F30223C3F1070CBCF1040F01D994
:100DA0004FF0040C1C1D072C01D2002300E0DB1EB9
:100DB000012404FA0CFCACF1010C0CEA010199408D
:100DC00004FA03F35B1E1A401143002808DA00F00E
:100DD0000F0000F1E020090180F8141D10BC7047DD
:100DE00000F1E020090180F8001410BC70470000F9
:100DF0000CED00E000F00700064A11684FF6FF0313
:100E0000194041EA002040F0FD7040F08060106021
:100E1000704700000CED00E00120010291FAA1F101
:100E2000B1FA81F1890001F1844101F56021086086
:100E30007047000010B586B001463FA0D0F808C04A
:100E400043680268C068CDF810C003930292059011
:100E50003DA00068019000203C4C012934D00229BB
:100E600057D010292ED16168226812F0807F29D0D6
:100E70004FF4701292FAA2F201F47010B2FA82F2F8
:100E8000D04002AA105C11F4803F10D061684FF48A
:100E9000003292FAA2F201F40031B2FA82F2D140A9
:100EA00001AA515C2A4AB2FBF1F1484301E0294909
:100EB0004843616811F4800F04D127494000A1FB29
:100EC0000010400806B010BD216A01F44072B2F56E
:100ED000807F06D111F0020F03D006B04FF400401E
:100EE00010BDB2F5007F07D1626A12F0020F03D085
:100EF00049F6404006B010BD4FF4407232EA01019D
:100F0000F8D1216811F4003FF4D006B04FF224402C
:100F100010BD00F0A7FA61684FF4804292FAA2F285
:100F200001F44041B2FA82F2D140491C4900B0FBC1
:100F3000F1F006B010BD0000020304050607080921
:100F40000A0B0C0D0E0F10100102000000100240E1
:100F500000127A0000093D00ABAAAAAA2DE9F843C5
:100F600004465E4E207810F0010F78D0F06940F012
:100F70008050F061F06900F080500090584D286872
:100F800040F480702860FFF781FE0746286810F45F
:100F9000807F0BD1FFF77AFEC01B642802D90320A3
:100FA000BDE8F883286810F4807FF3D0306AA18808
:100FB00000F4407001F44071884278D0306A20F427
:100FC00040704FF4803191FAA1F2B2FA82F29200AD
:100FD00002F1844202F584024FF00108C2F8008455
:100FE00091FAA1F10022B1FA81F1890001F1844165
:100FF00001F58401C1F80024306210F0020F50D0D6
:10100000FFF744FE0746022595FAA5F0B0FA80F0F6
:1010100040F04000B8EB501F01D130680BE095FA6A
:10102000A5F0B0FA80F040F04000B5EB501F01D1C0
:10103000306A00E0706A95FAA5F1B1FA81F101F029
:101040001F0108FA01F108422BD141F28839FFF75C
:101050001DFEC01B484503D90320BDE8F88326E0E8
:1010600095FAA5F0B0FA80F040F04000B8EB501FC0
:1010700001D131680BE095FAA5F0B0FA80F040F0AC
:101080004000B5EB501F01D1316A00E0716A95FA5A
:10109000A5F0B0FA80F000F01F0008FA00F001425D
:1010A000D5D0306A616820F44070084330622078FF
:1010B00010F0020F05D07068A16820F4404008438A
:1010C0007060207810F0100F05D07068E16820F48F
:1010D0008000084370600020BDE8F88300100240E3
:1010E000007000402DE9F04704460F46DFF80C93EE
:1010F000D9F80000012200F0070053040226C04D79
:101100004FF0007C41F28838B8427DD2D9F8000017
:1011100020F007003843C9F80000D9F8000000F0BB
:101120000700B84202D00120BDE8F087207810F017
:10113000020F05D06868A16820F0F00008436860DD
:10114000207810F0010F00F03D81606801280BD07D
:10115000022820D096FAA6F1B1FA81F141F02001DF
:1011600049092FD029682EE093FAA3F1B1FA81F151
:1011700041F02001490901D0296800E0696A93FA29
:10118000A3F3B3FA83F303F01F039A40114226D16D
:101190000120BDE8F0879CFAACF1B1FA81F141F091
:1011A0002001490901D0296800E0696A9CFAACF382
:1011B000B3FA83F303F01F039A4011420FD10120C9
:1011C000BDE8F087696A96FAA6F3B3FA83F303F0F1
:1011D0001F039A40114202D10120BDE8F0876968DF
:1011E00021F0030108436860FFF750FD0646606880
:1011F00001280FD0022820D0686810F00C0F72D0A0
:10120000FFF744FD801B00E02FE0404528D9032074
:10121000BDE8F087686800F00C00042863D0FFF791
:1012200035FD801B404502D90320BDE8F087686882
:1012300000F00C000428F2D1C4E0686800F00C0053
:10124000082850D0FFF722FD801B404502D903201B
:10125000BDE8F087686800F00C000828F2D1B1E022
:10126000686810F00C0FCBD1ACE0207810F0020FC2
:1012700005D06868A16820F0F00008436860207815
:1012800010F0010F70D0606801280BD0022820D028
:1012900096FAA6F1B1FA81F141F02001490930D066
:1012A00029682FE093FAA3F1B1FA81F141F020010E
:1012B000490901D0296800E0696A93FAA3F3B3FAF7
:1012C00083F303F01F039A40114227D10120BDE8A8
:1012D000F0879CFAACF1B1FA81F141F020014909A3
:1012E00002D0296801E06DE0696A9CFAACF3B3FAB8
:1012F00083F303F01F039A4011420FD10120BDE890
:10130000F087696A96FAA6F3B3FA83F303F01F0332
:101310009A40114202D10120BDE8F087696821F0AE
:10132000030108436860FFF7B1FC064660680128C6
:101330000DD002281FD0686810F00C0F32D0FFF7D4
:10134000A5FC801B404529D90320BDE8F0876868CB
:1013500000F00C00042825D0FFF798FC801B4045C6
:1013600003D90320BDE8F0871CE0686800F00C009A
:101370000428F1D116E0686800F00C00082811D0AC
:10138000FFF784FC801B404502D90320BDE8F087AD
:10139000686800F00C000828F2D103E0686810F0DB
:1013A0000C0FCCD1D9F8000020F007003843C9F861
:1013B0000000D9F8000000F00700B84202D0012078
:1013C000BDE8F087207810F0040F05D06868E16868
:1013D00020F4E06008436860207810F0080F06D021
:1013E0006868216920F4605040EAC100686000200C
:1013F000FFF79EFC0020BDE8F087000000200240BF
:101400000010024010B500F043F808494968F02286
:1014100092FAA2F201F0F001B2FA82F2D140044A4B
:10142000515CC8400349086010BD00000010024034
:10143000263800080000002010B5FFF7E3FF074939
:1014400049684FF4E06292FAA2F201F4E061B2FA64
:1014500082F2D140024A515CC84010BD00100240E7
:101460002638000810B5FFF7CDFF074949684FF44B
:10147000605292FAA2F201F46051B2FA82F2D140C3
:10148000024A515CC84010BD0010024026380008D6
:1014900085B01DA0036882684168C068019303920B
:1014A000029104901CA0006800901C4B59681C48D5
:1014B00001F00C02042A21D0082A1FD14FF4701C1D
:1014C0009CFAACFC01F47012BCFA8CFC22FA0CF20F
:1014D0000DF1040C1CF8022011F4803F10D0596863
:1014E0004FF4003393FAA3F301F40031B3FA83F31A
:1014F000D9401DF80110B0FBF1F0504305B0704722
:10150000084805B050437047020304050607080960
:101510000A0B0C0D0E0F101001020000001002400B
:1015200000127A0000093D002DE9F84F0446FC4DF9
:10153000207841F2883710F0010F4FF0010600F0DB
:10154000018168684FF4003800F00C00042808D0CE
:10155000686800F00C0008281ED1686810F4803F0D
:101560001AD098FAA8F0B0FA80F040F020004009B4
:1015700001D0286800E0686A98FAA8F1B1FA81F110
:1015800001F01F0106FA01F1084270D060680028DE
:101590006DD10120BDE8F88F286820F480302860E4
:1015A000286820F480202860FFF770FB814698FAB5
:1015B000A8F0B0FA80F040F02000400901D028687F
:1015C00000E0686A98FAA8F1B1FA81F101F01F0110
:1015D00006FA01F108421DD0FFF758FBA0EB090005
:1015E000B84202D90320BDE8F88F98FAA8F0B0FA03
:1015F00080F040F02000400901D0286800E0686ACF
:1016000098FAA8F1B1FA81F101F01F0106FA01F18F
:101610000842E1D16068B0F5803F1AD0F0B1B0F572
:10162000A02F25D0286820F480302860286820F476
:10163000802028606068C0B3FFF728FB814698FAD5
:10164000A8F0B0FA80F040F02000400919D02868D6
:1016500018E0286840F480302860EBE7286820F420
:1016600080302860286820F480202860E2E769E064
:10167000286840F480202860286840F48030286082
:10168000D8E7686A98FAA8F1B1FA81F101F01F0170
:1016900006FA01F1084255D1FFF7F8FAA0EB09006C
:1016A000B84203D90320BDE8F88F15E098FAA8F0F6
:1016B000B0FA80F040F02000400901D0286800E036
:1016C000686A98FAA8F1B1FA81F101F01F0106FAEF
:1016D00001F10842E0D035E0FFF7D8FA814698FAE8
:1016E000A8F0B0FA80F040F02000400901D028684E
:1016F00000E0686A98FAA8F1B1FA81F101F01F01DF
:1017000006FA01F108421DD0FFF7C0FAA0EB09006C
:10171000B84202D90320BDE8F88F98FAA8F0B0FAD1
:1017200080F040F02000400901D0286800E0686A9D
:1017300098FAA8F1B1FA81F101F01F0106FA01F15E
:101740000842E1D120784FF0000910F0020F4FF06D
:1017500002084ED068684FF0F80B10F00C0F21D043
:10176000686800F00C00082803D1686810F4803F16
:1017700018D0206988B396FAA6F0B0FA80F08000FD
:1017800000F1844000F584000660FFF77FFA82468E
:1017900098FAA8F0B0FA80F040F02000400929D073
:1017A000286828E098FAA8F0B0FA80F040F020000D
:1017B000400901D0286800E0686A98FAA8F1B1FAF7
:1017C00081F101F01F0106FA01F1084206D02069FB
:1017D000012803D00120BDE8F88F40E028689BFA7B
:1017E000ABF26169B2FA82F220F0F800914008434E
:1017F000286075E0686A98FAA8F1B1FA81F101F001
:101800001F0106FA01F108421DD1FFF73FFAA0EBD4
:101810000A00642802D90320BDE8F88F98FAA8F0DE
:10182000B0FA80F040F02000400901D0286800E0C4
:10183000686A98FAA8F1B1FA81F101F01F0106FA7D
:1018400001F10842E1D028689BFAABF26169B2FA73
:1018500082F220F0F80091400843286040E096FAB8
:10186000A6F0B0FA80F0800000F1844000F584001A
:10187000C0F80090FFF70AFA824698FAA8F0B0FA8A
:1018800080F040F02000400901D0286800E0686A3C
:1018900098FAA8F1B1FA81F101F01F0106FA01F1FD
:1018A00008421DD0FFF7F2F9A0EB0A00642802D924
:1018B0000320BDE8F88F98FAA8F0B0FA80F040F065
:1018C0002000400901D0286800E0686A98FAA8F171
:1018D000B1FA81F101F01F0106FA01F10842E1D1EC
:1018E000207810F0080F61D0A069D0B396FAA6F066
:1018F000B0FA80F0800000F1844000F58400C0F868
:101900008064FFF7C3F9824698FAA8F0B0FA80F035
:1019100040F06000B6EB501F04D128680EE00000D4
:101920000010024098FAA8F0B0FA80F040F0600091
:10193000B8EB501F01D1286A00E0686A98FAA8F154
:10194000B1FA81F101F01F0106FA01F108422AD132
:10195000FFF79CF9A0EB0A00642803D90320BDE837
:10196000F88F24E098FAA8F0B0FA80F040F0600018
:10197000B6EB501F01D128680BE098FAA8F0B0FA36
:1019800080F040F06000B8EB501F01D1286A00E001
:10199000686A98FAA8F1B1FA81F101F01F0106FA1C
:1019A00001F10842D4D00120FFF764F858E096FA1C
:1019B000A6F0B0FA80F0800000F1844000F58400C9
:1019C000C0F88094FFF762F9824698FAA8F0B0FA5E
:1019D00080F040F06000B6EB501F01D128680BE0AA
:1019E00098FAA8F0B0FA80F040F06000B8EB501F11
:1019F00001D1286A00E0686A98FAA8F1B1FA81F189
:101A000001F01F0106FA01F1084229D0FFF73EF963
:101A1000A0EB0A00642802D90320BDE8F88F98FAE9
:101A2000A8F0B0FA80F040F06000B6EB501F01D192
:101A300028680BE098FAA8F0B0FA80F040F0600057
:101A4000B8EB501F01D1286A00E0686A98FAA8F143
:101A5000B1FA81F101F01F0106FA01F10842D5D176
:101A6000207810F0040F70D0E86940F08050E861F1
:101A7000E86900F080500090DFF844B4DBF8000023
:101A800040F48070CBF80000FFF700F98246DBF8E5
:101A9000000010F4807F0DD1FFF7F8F8A0EB0A00EA
:101AA000642802D90320BDE8F88FDBF8000010F4A9
:101AB000807FF1D0286A20F001002862286A20F097
:101AC00004002862FFF7E2F8824698FAA8F0B0FA1C
:101AD00080F040F04000B6EB501F01D128680BE0C9
:101AE00098FAA8F0B0FA80F040F04000B8EB501F30
:101AF00001D1286A00E0686A98FAA8F1B1FA81F188
:101B000001F01F0106FA01F108422AD0FFF7BEF8E2
:101B1000A0EB0A00B84202D90320BDE8F88F98FA7A
:101B2000A8F0B0FA80F040F04000B6EB501F01D1B1
:101B300028680CE098FAA8F0B0FA80F040F0400075
:101B4000B8EB501F02D1286A01E0CFE0686A98FA2A
:101B5000A8F1B1FA81F101F01F0106FA01F1084282
:101B6000D4D1E06801281AD0F0B1052825D0286A20
:101B700020F001002862286A20F004002862E06852
:101B800078B3FFF783F8824698FAA8F0B0FA80F0AD
:101B900040F04000B6EB501F18D1286823E0286AB7
:101BA00040F001002862EAE7286A20F0010028627C
:101BB000286A20F004002862E1E7286A40F0040067
:101BC0002862286A40F001002862D8E798FAA8F055
:101BD000B0FA80F040F04000B8EB501F02D1286A04
:101BE00001E035E0686A98FAA8F1B1FA81F101F0F4
:101BF0001F0106FA01F1084278D1FFF747F8A0EB80
:101C00000A00B84202D90320BDE8F88F98FAA8F07C
:101C1000B0FA80F040F04000B6EB501F01D12868C8
:101C20000BE098FAA8F0B0FA80F040F04000B8EB72
:101C3000501F01D1286A00E0686A98FAA8F1B1FA49
:101C400081F101F01F0106FA01F10842D5D04DE003
:101C5000FFF71CF8824698FAA8F0B0FA80F040F03E
:101C60004000B6EB501F01D128680BE098FAA8F0AD
:101C7000B0FA80F040F04000B8EB501F01D1286A64
:101C800000E0686A98FAA8F1B1FA81F101F01F0149
:101C900006FA01F1084229D0FEF7F8FFA0EB0A008E
:101CA000B84202D90320BDE8F88F98FAA8F0B0FA3C
:101CB00080F040F04000B6EB501F01D128680BE0E7
:101CC00098FAA8F0B0FA80F040F04000B8EB501F4E
:101CD00001D1286A00E0686A98FAA8F1B1FA81F1A6
:101CE00001F01F0106FA01F10842D5D1E069D0B335
:101CF000696801F00C0108297ED04FF0807A4FF01E
:101D00000078022817D09AFAAAF0B0FA80F0800082
:101D100000F1844000F58400C0F80090FEF7B6FFA3
:101D2000044698FAA8F0B0FA80F040F0200040098C
:101D30007ED0286897E09AFAAAF0B0FA80F0800086
:101D400000F1844000F58400C0F80090FEF79EFF8B
:101D5000074698FAA8F0B0FA80F040F02000400959
:101D600002D0286801E0A5E0686A98FAA8F1B1FA03
:101D700081F101F01F0106FA01F108421CD0FEF7C3
:101D800085FFC01B642802D90320BDE8F88F98FAAC
:101D9000A8F0B0FA80F040F02000400901D0286897
:101DA00000E0686A98FAA8F1B1FA81F101F01F0128
:101DB00006FA01F10842E2D1206AB0F5803F05D170
:101DC0006868A16820F4003008436860616A206A8E
:101DD0000843696821F47411084368609AFAAAF00C
:101DE000B0FA80F0800000F1844000F584000660C5
:101DF000FEF74CFF044600E05FE098FAA8F0B0FA66
:101E000080F040F02000400901D0286800E0686AB6
:101E100098FAA8F1B1FA81F101F01F0106FA01F177
:101E2000084247D1FEF732FF001B642804D900E0C6
:101E300018E00320BDE8F88F98FAA8F0B0FA80F017
:101E400040F02000400901D0296800E0696A98FA52
:101E5000A8F0B0FA80F000F01F0006FA00F001428E
:101E6000E0D027E0686A98FAA8F1B1FA81F101F0B0
:101E70001F0106FA01F108421CD0FEF707FF001B04
:101E8000642802D90320BDE8F88F98FAA8F0B0FAC8
:101E900080F040F02000400901D0296800E0696A24
:101EA00098FAA8F0B0FA80F000F01F0006FA00F0EF
:101EB0000142E2D10020BDE8F88F0120BDE8F88F93
:101EC0000070004010B4002814D099B1027C012A9F
:101ED00013D00123037402224274124A126812F4CE
:101EE000C07F4FF000020BD004214174027410BC7B
:101EF0000120704710BC0120704710BC02207047C1
:101F0000D1F800C049684CEA010C07490C6824F07C
:101F100003044CEA040CC1F800C04374027410BC02
:101F2000002070472C6C0040306C004070B50446B7
:101F3000002C03D0607C002610B105E0012070BDAC
:101F40002674204600F04EF802206074204600F00F
:101F50003CF9042510B16574012070BD204600F0E5
:101F600080FC10B16574012070BD2068416821F0CB
:101F700007014160A06820B11848016821F0010103
:101F8000016017480168A26821F460711143016083
:101F90006068B0F1FF3F04D10120FEF74BFF98B11C
:101FA000401E21688A6822F00F0242EA10428A60CD
:101FB0002168CA6860F30F02CA60204600F06FFC17
:101FC00028B16574012070BD6574012070BDE67391
:101FD00001206073A0736074002070BD306C0040FD
:101FE0002C6C004008B50068A0F18041B1F520518B
:101FF00017D1FEF711FF0B48C16941F00061C161C3
:10200000C06900F0006000900120C10391FAA1F1C5
:10201000B1FA81F1890001F1844101F58401C1F82F
:10202000000408BD001002402DE9F04104460D46B1
:10203000002C3DD0002D3BD0207C01283BD0012638
:10204000267402206074002A38D0E87800F000FC82
:10205000E073687800F0FCFB6073A87800F0F8FB90
:10206000A073A27B617BE07B00F04EFC20732870A4
:10207000204600F039FC01464FF46160B1FBF0F0FE
:102080000027182837D91E4AA2FB00201D4A000944
:10209000504301EBC0152946204600F090FC4FF05C
:1020A000040890B184F8118027740120BDE8F08104
:1020B0000120BDE8F0810220BDE8F081E878E073FE
:1020C00068786073A878A073CBE7204600F005FC21
:1020D000B0F1FF3F0FD0A8420DD200F5803101F5DD
:1020E000A341204600F054FC28B184F811802774E5
:1020F0000120BDE8F081667427740020BDE8F081FE
:10210000ABAAAAAA5DFDFFFF2DE9F04104460D46EA
:10211000002C28D03DB3207C012827D0012626742E
:10212000022060742AB3287800F092FB4FF46161BA
:1021300000FB01F7687800F08BFBC0EB001007EBA9
:102140008007A87800F084FB3D182946204600F05F
:1021500036FC00274FF00408B8B184F811802774CA
:102160000120BDE8F0810120BDE8F0810220BDE83A
:10217000F08128784FF4616141436878C0EB00102A
:1021800001EB8000A9784518DFE72068416821F05D
:1021900005014160204600F0A0FBB0F1FF3F0FD0E9
:1021A000A8420DD200F5803101F5A341204600F090
:1021B000EFFB28B184F8118027740120BDE8F0817D
:1021C000667427740020BDE8F08170B50446002CC9
:1021D0000DD02068416821F008014160FEF756FDEE
:1021E00005462068406810F0080F02D00EE001207C
:1021F00070BDFEF74BFD401BB0F57A7F01D903207F
:1022000070BD2068406810F0080FF2D0002070BD4B
:1022100010B50446002C03D094F8510010B104E02E
:10222000012010BD204600F039F8022084F851004A
:102230002068016821F040010160A168606822699E
:102240000843E1681143084361690843218B01F4A5
:1022500000710843E1690843216A0843A16A084301
:1022600021680860A069042101EA1040616A0843FE
:10227000216848602168E06A08612068C16921F42A
:102280000061C1610449002008706065012084F884
:102290005100002010BD00000800002010B586B0DD
:1022A0000068A0F18041B1F598311CD10F488169D7
:1022B00041F480518161806900F480500190502088
:1022C0000290002003900490094C02A92046FEF7DA
:1022D000DDFBA0210291022103910321059102A9B6
:1022E0002046FEF7D3FB06B010BD000000100240F0
:1022F000000801404FF0E021042804D0086920F0D4
:10230000040008617047086940F0040008617047E4
:10231000401EB0F1807F01D3012070474FF0E021D3
:102320004861044AF020107000208861072008618D
:102330000020704723ED00E010B490F83820012A07
:102340002AD0012380F83830022280F83920026830
:10235000D2F804C02CF0700CC2F804C00268D2F8A5
:1023600004C00C684CEA040CC2F804C00268D2F83D
:1023700008C02CF0800CC2F808C00268D2F808C06F
:1023800049684CEA0101916080F83930002180F8F9
:10239000381010BC0020704710BC0220704770B588
:1023A00004460D4694F8380001280DD0012684F823
:1023B0003860022084F8390042B1042A1AD0082A71
:1023C0002DD00C2A53D13EE0022070BD2946206852
:1023D00000F0CEFB2068816941F00801816120682E
:1023E000816921F004018161206881692A691143B2
:1023F00081613CE02946206800F0EEFB206881699D
:1024000041F4006181612068816921F4806181610A
:10241000206881692A6941EA0221816127E0294611
:10242000206800F00DFC2068C16941F00801C1611D
:102430002068C16921F00401C1612068C1692A696D
:102440001143C16113E02946206800F02DFC20688B
:10245000C16941F40061C1612068C16921F48061F2
:10246000C1612068C1692A6941EA0221C16184F819
:102470003960002084F8380070BD10B50446002C87
:1024800003D094F8390010B107E0012010BD0020FE
:1024900084F83800204600F00DF8022084F8390056
:1024A000211D206800F030FB012084F83900002055
:1024B00010BD000000B587B00068A0F18041B1F503
:1024C000806118D10D48C16941F00201C161C06944
:1024D00000F002000190202002900220039005905D
:1024E00002A90748FEF7D2FA0648416821F4406184
:1024F00041F40061416007B000BD000000100240DF
:10250000000C01400000014070B50446002C04D0CE
:1025100094F83900002510B106E0012070BD84F860
:102520003850204600F020F8022084F83900206856
:10253000C16821F40051C160204600F0DDFB206835
:10254000016921F4904101612068416921F02A016B
:1025500041612068C16841F40051C160E563012018
:1025600084F83900002070BD10B586B00068A0F175
:102570008041B1F59C311DD10F48816941F4804102
:102580008161806900F4804001904FF400700290F6
:102590000220039003200590084C02A92046FEF774
:1025A00075FA2115029100210391049102A9204698
:1025B000FEF76CFA06B010BD0010024000080140A2
:1025C00010B50446002C02D0607C10B106E001205A
:1025D00010BD00202074204600F018F8022060741E
:1025E000A168606840EA0102206841686FF3080151
:1025F0001143416020680168E26821F07F011143C6
:10260000016001206074002010BD000081B00068EE
:10261000A0F18041B1F5305108D10548C16941F4BC
:102620000061C161C06900F40060009001B07047B2
:102630000010024030B583B00C480B490160002403
:102640008460C46044614FF46021C161446001252D
:102650000561FEF753F90094019502946946034819
:10266000FEF780F803B030BD002401407000002068
:1026700070B586B02348816941F01001816181699C
:1026800001F010010191816941F0200181618169AE
:1026900001F020010191816941F0040181618169AA
:1026A00001F004010191816941F0080181618069B3
:1026B00000F0080001900420029000240394049488
:1026C00002A91148FEF7E2F901250295039404944A
:1026D0000E4E02A93046FEF7D9F940F202410291AE
:1026E0000B490391049402A93046FEF7CFF9E902A1
:1026F000029103950220059002A93046FEF7C6F923
:1027000006B070BD0010024000080140000C0140FE
:10271000000011100548044901600021416040F6A5
:10272000FF718160FEF7B8BA00300040A0000020C1
:1027300030B585B01648154901604FF0FF31416052
:1027400000248460FFF7F2FB8DF80C408DF80D40FB
:102750008DF80E40012203A90D48FFF7D5FC012595
:102760008DF808508DF809508DF80A508DF80B40FF
:10277000012202A90648FFF757FC009502200190AC
:1027800069460348FFF79EFB05B030BD00280040B6
:10279000B00000200B480A4901604FF4827141608B
:1027A00000218160C160016141614FF4802282613A
:1027B000C1610162416281620A21C162FFF728BDE5
:1027C00000300140C400002010B58AB00E480D4909
:1027D0000160002444608460C4600461FFF74DFE22
:1027E0000894099408A90848FFF7A6FD6020019005
:1027F000029403940594042201A90348FFF7CFFD36
:102800000AB010BD000400401C0100200848074920
:1028100001604FF4E131416000218160C1600161DC
:102820000C2242618161C161FFF76EBE0038014038
:102830005801002005480449016000214160402101
:102840008160C160FFF7BCBE002C004098010020F1
:10285000010901EB8101490000F00F000844C0B2FA
:10286000704770B50446FEF711FA054620684068C7
:1028700010F0200F0CD1FEF709FA401BB0F57A7F5B
:1028800001D9032070BD2068406810F0200FF2D0FD
:102890002068416841F010014160002070BD70B5B2
:1028A00004462068416821F010014160FEF7EEF90E
:1028B00005462068406810F0200F0CD1FEF7E6F9BD
:1028C000401BB0F57A7F01D9032070BD20684068B5
:1028D00010F0200FF2D0002070BD0068016A406A3D
:1028E00080B240EA014070470068816989B2C269DC
:1028F00093B2826992B2914203D0C06962F31F40E1
:10290000704743EA0140704710B400F5FA63C1EB29
:10291000C10C0CEB011C40F639640CFB04FC02EB0F
:10292000DC3218461044184ADFF860C04FF4C8740F
:10293000032913D2591E00EB9103A2FB0120B1FB26
:10294000F4F1A3EB50100844001D62460021E0FBA7
:102950000C214908A1EBC101084411E000EB9301EF
:10296000A2FB0320A1EB5010B3FBF4F10844074A8B
:10297000801C0021E0FB0C214908A1EBC1010844A7
:1029800010BCC0B2704700001F85EB51499224492A
:1029900070B505460E4600242846FFF762FF08B1D1
:1029A00001240AE02968300C08622968B0B2486244
:1029B0002846FFF774FF00B10124204670BD70B5B2
:1029C00005460E4600242846FFF74BFF08B10124B8
:1029D0000AE02968300C88612968B0B2C8612846CD
:1029E000FFF75DFF00B10124204670BDFDF7D6FD65
:1029F000B8B10020FDF796FD4FF47A7000F04EFA62
:102A00000020FDF781FD4FF4FA7000F047FA002036
:102A1000FDF788FD4FF47A7000F040FA0020FDF7D2
:102A200073FD0A4CFDF78CFDA04202D10020FDF79A
:102A300079FD4FF4FA7000F031FA0020FDF764FDE3
:102A40004FF47A7000F02AFAECE700000000203F13
:102A500010B5FEF753F9BDE8104000F02CBA30B5C0
:102A600095B00A200A9001250E9510200F90109520
:102A7000002411940AA8FEF757FD059506940794C3
:102A800008940994002105A8FEF72CFB0320009070
:102A90006802019002946846FEF760FAFEF7B2FC05
:102AA0004FF47A71B0FBF1F0FFF732FC0420FFF72E
:102AB00021FC00221146501EFEF768F915B030BD0A
:102AC0000E48016841F00101016041680C4A114063
:102AD0004160016821F4102121F0807101600168DA
:102AE00021F480210160416821F4FE0141604FF42E
:102AF0001F0181600349C003086070470010024055
:102B00000000FFF808ED00E030B40268DFF854C0C0
:102B1000154C164B604506D0B0F1804F03D0A04253
:102B200001D0984203D122F070024D682A436045DB
:102B300006D0B0F1804F03D0A04201D0984203D11B
:102B400022F44072CB681A4302608A68C2620A6843
:102B50008262604501D1096901630121416130BC94
:102B600070470000002C01400004004000080040B5
:102B700010B4026A22F001020262036A4268D0F8CD
:102B800018C02CF0700C2CF0030C0C6844EA0C0CF0
:102B900023F002038C6823430E4CA04206D123F09D
:102BA0000803CC6844EA030323F0040309D122F4A8
:102BB000807222F400724C6944EA02028C6944EA91
:102BC00002024260C0F818C049684163036210BC49
:102BD00070470000002C014010B4026A22F010027D
:102BE0000262036A4268D0F818C02CF4E04C2CF45E
:102BF000407C0C684CEA042C23F020038C6843EAE8
:102C000004130E4CA04206D123F08003CC6843EAA3
:102C1000041323F0400309D122F4806222F40062FD
:102C20004C6942EA84028C6942EA84024260C0F83C
:102C300018C049688163036210BC7047002C0140D2
:102C400010B4026A22F480720262036A4268D0F809
:102C50001CC02CF0700C2CF0030C0C6844EA0C0C1B
:102C600023F400738C6843EA04230E4CA04206D17F
:102C700023F40063CC6843EA042323F4806309D17E
:102C800022F4805222F400524C6942EA04128C6908
:102C900042EA04124260C0F81CC04968C163036282
:102CA00010BC7047002C014010B4026A22F480521C
:102CB0000262036A4268D0F81CC02CF4E04C2CF489
:102CC000407C0C684CEA042C23F400538C6843EAE3
:102CD0000433A0F18044B4F5963404D122F4804248
:102CE0004C6942EA84124260C0F81CC04968016421
:102CF000036210BC704700002DE9F04104462068D3
:102D00000169E26821F44051114301612169A06821
:102D10000843616901432068C26822F4037222F407
:102D2000A0521143C16020684169A26921F4407139
:102D3000114341612068374D3226A0F18041B1F541
:102D40009C3133D0FEF778FB00EBC00101EB0010A3
:102D500061688900B0FBF1F0A5FB00104709FEF7A0
:102D60006BFB00EBC00101EB001061688900B0FB58
:102D7000F1F8FEF761FB00EBC00101EB00106168A8
:102D80008900B0FBF1F0A5FB001040096FF01801BD
:102D9000484308EB800006EB0010A5FB00102168FB
:102DA000400967F31F108860BDE8F081FEF75AFB09
:102DB00000EBC00101EB001061688900B0FBF1F08D
:102DC000A5FB00104709FEF74DFB00EBC00101EB2E
:102DD000001061688900B0FBF1F8FEF743FB00EBDF
:102DE000C00101EB001061688900B0FBF1F0A5FBA8
:102DF000001040096FF01801484308EB800006EB13
:102E00000010A5FB00102168400967F31F108860BF
:102E1000BDE8F0811F85EB5102E008C8121F08C110
:102E2000002AFAD170477047002001E001C1121F4B
:102E3000002AFBD17047000086B0FDF767FFFFF75F
:102E40000EFEFFF715FCFFF7F5FBFFF763FCFFF73E
:102E50006FFCFFF79FFCFFF7B7FCFFF7D7FCFFF70E
:102E6000E9FC094890E80E10CDE9033C029201917B
:102E700000690590002101A800F027F803490860C7
:102E800000F014F8FEE700003838000810000020B9
:102E90000021842800D0C11C0846704710B50028C6
:102EA00000D1012000F0A2FA002010BD10B500F002
:102EB000C9FA002010BD10B500F0EAFB012803D0CC
:102EC000BDE8104000F05EBB10BD30B585B00446D3
:102ED0000D46B4F90800FFF7DBFF002104AA0291B8
:102EE000019203910090208A2B4682B2216860688B
:102EF00000F05AFB012802D005B0002030BD049834
:102F000005B030BD70B504460B4D28684460E868D4
:102F1000844206D22868011D686BBDE8704000F04D
:102F2000CDB92868011D286B00F0C8F9A86A844251
:102F300000D2AC6270BD00001400002070B58600A5
:102F4000002908D00D467DB15C2000F025F904462B
:102F500034B1256309E0304600F01EF90546F2E77A
:102F6000284600F003FA00E0002424B1A5223146EF
:102F7000206BFDF739F9204670BD000070B5134D88
:102F80006868002820D0124E00F086FA306820B120
:102F9000002400F0EFFB14B113E00124F9E700F086
:102FA000B5F9F068C468201D00F068F9A868401EF3
:102FB000A8606868401E686000F0C4F9204600F010
:102FC00009F868680028DFD170BD000014000020F7
:102FD0007402002010B50446206B00F0C7F92046AB
:102FE000BDE8104000F0C2B94FF44061104810F045
:102FF000070F06D0C01D20F007000D49411AC1F58A
:1030000040610C4A1060002353600144083921F0EC
:103010000701103A11604B600B600B1A43600160AE
:103020004068906050604FF00040D06070470000F2
:103030009C02002068000020044CFFF79FFF2068DE
:103040000128FAD900F0C6F9F7E70000AC0100202A
:1030500070B504461546002023180A5C83F8342016
:103060000A5C12B1401C1028F6D3002684F8436095
:10307000072D00D30625E562E5642665201D00F0D6
:103080001AF904F1180000F016F92461C5F10700DF
:10309000A0616462666584F8586070BD70B50024F4
:1030A0000F4D04EB840005EB800000F0F9F8641C80
:1030B000072CF6D30B4800F0F3F80B4800F0F0F8BB
:1030C0000A4800F0EDF80A4800F0EAF8094800F074
:1030D000E7F80948034901631431416370BD0000FA
:1030E000AC010020380200204C02002060020020C9
:1030F00074020020880200201400002010B414493B
:1031000000E011460A688242FBD34B6803EB010CD6
:10311000844503D140681844486008460C68D0F8DC
:1031200004C00CEB0003A3420CD10A4B1B689A426B
:1031300006D05268624442600A681268026002E087
:10314000036000E00260814200D0086010BC70475C
:1031500068000020580000200749086B006800281C
:1031600005D0086BC068C0684068886270474FF03F
:10317000FF30886270470000140000200548406856
:10318000B0F1FF3F02D0FCF7FFFFFEE7FCF7FCFFCA
:10319000FEE700004C0000202DE9F0410546002626
:1031A00000F07AF92B4F386808B9FFF71DFFF8686F
:1031B000054243D175B1083515F0070F0AD005F067
:1031C0000700C0F10800054415F0070F02D0FCF716
:1031D000DBFFFEE795B3786885422FD81E49084685
:1031E000046801E0214604466068A84202D22068D3
:1031F0000028F7D13868844220D0086800F108061A
:10320000206808606068411B10290AD9601910F015
:10321000070F02D0FCF7B8FFFEE741606560FFF7DB
:103220006DFF61687868401A7860BA68904200D291
:10323000B860F868084360600020206000F09AFAE7
:1032400016F0070F02D0FCF79FFFFEE73046BDE8FF
:10325000F08100005800002068000020001F4FF09F
:1032600080730360001F0160001F03490160143870
:1032700002602038704700007D3100080169436812
:1032800082689A60836842685A604A68824201D1C3
:1032900082684A60002202610868401E0860704728
:1032A00000F1080141604FF0FF328260C1600161AE
:1032B00000210160704700210161704710B4D1F80E
:1032C00000C0BCF1FF3F02D000F1080202E0026939
:1032D00004E01A4653681C686445FAD953684B6089
:1032E00099608A60516008610168491C016010BCE6
:1032F000704742684A6093688B6093685960916038
:1033000008610168491C01607047000010B5FCF7B6
:103310003BFF0A484168491C4160BFF34F8FBFF330
:103320006F8F4068012807D10548006810F0FF0F33
:1033300002D0FCF729FFFEE710BD00004C00002082
:1033400004ED00E010B508494868002807D0401E89
:103350004860002806D1BDE81040FCF71CBFFCF710
:1033600013FFFEE710BD00004C00002070B50028E0
:103370001DD0A0F108040E4D6068E968084202D132
:10338000FCF702FFFEE7226812B1FCF7FDFEFEE744
:103390008843606000F080F860686968084468608D
:1033A0002046FFF7ABFEBDE8704000F0E3B970BD0A
:1033B0005800002006484FF47A710068B0FBF1F025
:1033C000411E4FF0E020416107210161704700007C
:1033D0000000002004494FF080500860BFF34F8F79
:1033E000BFF36F8F7047000004ED00E070B5024638
:1033F0000020002A1DD0124CE06A10B1FCF7C4FE78
:10340000FEE700F049F8E06885182068001DFFF726
:1034100035FF48B92068012190F82C0001FA00F02E
:10342000216921EA000020612846FFF76BFD00F0CA
:10343000A1F9002803D1BDE87040FFF7CBBF70BDF4
:103440001400002010B584B000240094019402946C
:10345000234680220CA10E48039400F0A5F8012811
:1034600004D000280DD1FCF78FFEFEE7FCF78CFEA0
:10347000084801214161C46004B0BDE8104000F07B
:103480003FB804B010BD000049444C4500000000A6
:1034900039300008140000200248C16A491CC1628A
:1034A000704700001400002010B5134AD06A0028AD
:1034B00002D00120D06110BD0020D0611069B0FAA7
:1034C00080F0C0F11F000D4900EB800051F8203062
:1034D00073B101EB800041684968416000F1080365
:1034E000994201D1496841604068C068106010BDD0
:1034F000FCF74AFEFEE7000014000020AC010020AB
:1035000000B583B01C4908780290FF200870087845
:1035100001909DF80400194A00F050001070072037
:1035200090609DF8040010F0800F0BD09068401E52
:1035300090609DF80400400001909DF8040010F098
:10354000800FF3D1107A000200F4E06090600298DE
:1035500008700B48016841F470010160016841F096
:1035600070410160FFF726FF00205060FCF7DAFD94
:1035700003B0002000BD000000E400E04C0000208B
:1035800020ED00E010B5FCF7FFFD00F08FF818B15A
:1035900004494FF080500860BDE810400020FCF75F
:1035A000FABD000004ED00E02DE9FF4F81B0814637
:1035B000DDF844A00F9E0E9D10999046B9F1000FC2
:1035C00004D0072D05D3FCF7DFFDFEE7FCF7DCFD9B
:1035D000FEE74046FFF7B2FC04462B4F002C42D0DA
:1035E000206BA8F1010100EB810020F0070B53468E
:1035F0002A46CDF8008020460299FFF729FD49466A
:103600005846049AFFF72AFE206006B13460FFF79F
:103610007DFEB868401CB860386810B1786938B170
:103620000BE03C60B868012807D1FFF737FD04E0E4
:103630003868C06AA84200D83C60786A401C78624A
:103640006064E06A01213A698140114339610F49A0
:1036500000EB800001EB8000211DFFF74AFE0124F2
:10366000FFF770FE01E04FF0FF34012C07D17869BD
:1036700028B13868C06AA84201D2FFF7ABFE05B096
:103680002046BDE8F08F000014000020AC010020AF
:1036900005484169002903D0C06A18B1002070476D
:1036A0000120704702207047140000202DE9F047E8
:1036B00000252E4FF86A002808D0B869401CB86170
:1036C000F86900B101252846BDE8F087F868401C7C
:1036D000F860FE6876B9386B006810B1FCF754FDED
:1036E000FEE7386B796B39637863386A401C38625F
:1036F000FFF732FDB86ADFF8788086420FD34FF0CB
:103700000109386B006838B1386BC068C4686068FC
:1037100086420ED2B86202E04FF0FF30B8623868DD
:10372000C06A00EB800058F820000128C8D90125A4
:10373000C6E7201DFFF7A2FDA06A18B104F118002A
:10374000FFF79CFDE16A3A6909FA01F0104338611C
:1037500001EB810008EB8000211DFFF7CAFDE06A44
:103760003968C96A8842CCD30125CAE71400002011
:10377000AC0100202DE9F0474FF00008274DE86A22
:10378000002807D0FFF7C2FDE86A401EE862E86A39
:1037900018B13EE0FCF7F8FCFEE7A868002838D036
:1037A0001F4F0126386800B3A7F1B409F868C46850
:1037B00004F11800FFF762FD201DFFF75FFDE06ACE
:1037C0002A6906FA00F11143296100EB800009EB38
:1037D0008000211DFFF78DFDE06A2968C96A8842D3
:1037E00000D3EE6138680028E0D1A86958B1A86913
:1037F00048B1FFF75BFF00B1EE61A869401EA86108
:10380000A8690028F5D1E869012802D18046FFF7B0
:10381000E1FDFFF797FD4046BDE8F087140000206A
:103820006002002000080000000001020304010201
:1038300003040607080900004C380008ED290008B9
:103840000000000000000000800000006465666168
:10385000756C745461736B007838000800000020A8
:1038600070000000182E0008E838000870000020E2
:1038700030120000282E000800A24A04000C01406B
:103880000000000000000000000000000000000038
:103890000000000000000000000000000000000028
:1038A0000000000000000000000000000000000018
:1038B00000000000FFFFFFFF00000000000000000C
:1038C0000000000000000000AAAAAAAA0000000050
:1038D00000000000000000000000000000000000E8
:0838E0000000000000000000E0
:04000005080000ED02
:00000001FF
