:020000040800F2
:100000004806002001010008090100080B01000852
:100010000D0100080F010008110100080000000098
:1000200000000000000000000000000013010008B4
:10003000150100080000000017010008A1340008A5
:100040001B0100081B0100081B0100081B01000820
:100050001B0100081B0100081B0100081B01000810
:100060001B0100081B0100081B0100081B01000800
:100070001B0100081B0100082508000831080008C2
:100080001B0100081B0100081B0100081B010008E0
:100090001B0100081B0100081B0100081B010008D0
:1000A0001B0100081B0100081B0100081B010008C0
:1000B0001B0100081B0100081B0100081B010008B0
:1000C0001B0100081B0100081B0100081B010008A0
:1000D0001B010008F13A00081B0100081B01000881
:1000E0001B0100081B0100081B010008DFF80CD0F1
:1000F00000F010FA00480047713B00084806002055
:100100000648804706480047FEE7FEE7FEE7FEE7B1
:10011000FEE7FEE7FEE7FEE7FEE7FEE7253500081F
:10012000ED000008202A04DB203A21FA02F0002129
:10013000704721FA02F3D040C2F1200291400843F7
:1001400019467047F0B480EA0102D40F4200B2EBC6
:10015000410F02D20246084611464A0042D0C30D62
:10016000DDB2C1F3C752AD1A202D35DAC1F3160145
:1001700041F4000204B15242C5F1200602FA06F130
:100180002A411044B3EBD05F23D0C4B1012DA0EBC2
:10019000C35009DCF0BC4FF0004202EAC352DBB2AC
:1001A00000F5000000F02AB9400000F1807000EB7B
:1001B000C350A0F1807040EAD170490009E04908BD
:1001C00041EAC071A0EBC35000F50000400800EB0D
:1001D000C350F0BC00F009B96142012202EB4101B9
:1001E000001BF6E7F0BC704781F00041AAE780F001
:1001F0000040A7E780EA010210B502F0004340008A
:1002000022D04A001FD0010E01EB1261C0F356004C
:10021000C2F3560240F4000042F40002A0FB0220A8
:1002200000047F39140400D0401C50EA124001D46D
:100230004000491EC2B20C0604EBD010401C40081E
:10024000802A02D003E0002010BD20F00100002928
:1002500000DA0020184310BD30B480EA010202F039
:10026000004530F0004221F0004013D090B1C30DA2
:10027000D40DC2F31601C0F31600E41A41F40001D4
:1002800040F400027D34914201D3641C00E0490037
:10029000002C02DA30BC002070474FF4000000232D
:1002A000914201D3891A034340084FEA4101F7D133
:1002B00051B1914202D14FF0004105E002D24FF01E
:1002C000010101E06FF0010103EBC450284430BC90
:1002D00000F08BB8420005D0C0F3C75252429142A1
:1002E00001DC0020704700EBC150704770B521F071
:1002F000004303430CD0C1F30A550024D5EB040599
:1003000064EB0403D617AD1AB34102DB00200146AB
:1003100070BD201841EB025170BDC10F80EAE07042
:100320000844CA079623002100F068B896230022EB
:10033000114600F063B80EB5C10F80EAE0700844C2
:10034000CA07002140F233438DE80E000A460B46EF
:1003500000F091F803B000BD00F0004220F0004032
:10036000C10DC0F3160040F400007F2901DA00201F
:100370007047962903DCC1F19601C84001E0963927
:100380008840002AF4D04042704720F00040C10D60
:10039000C0F3160040F400007F2901DA0020704706
:1003A000962903DCC1F19601C84070479639884010
:1003B000704701F0004330B421F0004150EA0102DF
:1003C00006D00A0DA2F56072C1F31301002A02DC07
:1003D00030BC00207047440F44EAC104C100E0185B
:1003E00030BC00EBC250AFF300800029A8BF7047BB
:1003F000401C490008BF20F00100704710B4B0FA5B
:1004000080FC00FA0CF050EA010404BF10BC7047F5
:1004100049B1CCF1200421FA04F411FA0CF118BF0F
:10042000012121430843A3EB0C01CB1D4FEA0061DE
:100430004FEA102042BF002010BC704700EBC350B1
:1004400010440029A4BF10BC7047401C490008BFDD
:1004500020F0010010BC704710B5141E73F10004A9
:1004600008DA401C41F1000192185B411A4301D1A6
:1004700020F0010010BD2DE9F04D92469B4611B1D0
:10048000B1FA81F202E0B0FA80F22032904600F038
:1004900053F804460F4640EA0A0041EA0B0153466E
:1004A0005A46084313D0114653EA010019D0C8F147
:1004B00040025046FFF736FE05460E465046594666
:1004C000424600F039F8084305D0012004E02046F8
:1004D0003946BDE8F08D0020054346EAE0762C431E
:1004E00037430A986305E40AA0EB08000022FD0ADE
:1004F00044EA47540A3002D500200146E9E70105E5
:1005000010196941DDE9084500196941BDE8F04D60
:10051000A2E70000064C074D06E0E06840F001034A
:1005200094E8070098471034AC42F6D3FFF7E2FD99
:10053000CC3C0008EC3C0008202A04DB203A00FAFE
:1005400002F1002070479140C2F1200320FA03F32A
:1005500019439040704770B504462068816811F0D7
:10056000010F1FD0816821F00101816000F0AAFD18
:1005700005462068806810F0010F13D000F0A2FD3E
:10058000401B022809D9A06A40F01000A062E06A6E
:1005900040F00100E062012070BD2068806810F02A
:1005A000010FEBD1002070BD0449054A31F810104D
:1005B00052F82000002200F07EBD0000B83C000888
:1005C000040000200449054A31F8101052F82000B8
:1005D000012200F070BD0000B83C000804000020BB
:1005E00010B500F0A7F800F04FF8332000F0BCF889
:1005F00000F0A0F800F048F8CC2000F0B5F8442056
:1006000000F0B2F8322000F0DFF800F093F800F0CC
:100610003BF8CC2000F0A8F8BE2000F0A5F800F0D0
:100620005FF8044600F05CF8000201B251EA0400F1
:100630006FF0030401D5C043401CFFF77CFE224647
:10064000FFF754FEBDE81040FFF7B3BE1FB5002012
:10065000019002900390042000906946014800F048
:1006600031FC1FBD000801401FB50020029004208E
:10067000009011200190032003906946014800F08A
:1006800021FC1FBD0008014070B50024FFF7DEFF0C
:10069000124D04E0641CE4B2012000F095F804213E
:1006A000284600F001FD10B1642CF3D30FE0642C58
:1006B0000DD2002404E0641CE4B2012000F084F8B0
:1006C0000421284600F0F0FC18B1F02C04D30120DE
:1006D00070BDF02CEFD3FAE7002070BD0008014098
:1006E0002DE9F0410026124F354600BFFFF7BCFF51
:1006F00000220421384600F0DEFC0A2000F064F8F5
:10070000FFF7A4FF0421384600F0CEFC01280DD0ED
:1007100000242D2000F058F8AC4034436D1CEDB29D
:10072000E6B2082DE2D33046BDE8F0810124F0E7BF
:100730000008014010B5FFF797FF0A4C0022042182
:10074000204600F0B8FC40F2EE2000F03DF8012217
:100750000421204600F0AFFCBDE810400F2000F05F
:1007600033B800000008014070B50546FFF77CFF74
:10077000144E002415F0010F4FEA55054FF000020A
:100780004FF0040130460BD000F095FC082000F03B
:100790001BF801220421304600F08DFC3A200AE0CB
:1007A00000F089FC462000F00FF8012204213046B9
:1007B00000F081FC022000F007F8641CE4B2082C71
:1007C000D8D370BD0008014070B54FF0E024054655
:1007D000666901F00DF80A49B0FBF1F04543A169E3
:1007E0000020A2698A42FCD002D2A1EB020102E001
:1007F000A6EB0203194408441146A842F1D370BD88
:1008000000127A000020FFF7CFBE0020FFF7DABE0B
:1008100003484088002801D000F049BB7047000021
:1008200018000020014800F0B5B900009801002030
:10083000014800F0AFB90000D0010020D0F800C09E
:10084000CCF804304368102B04D00368996000682A
:10085000C260704703689A600068C16070470020FA
:100860007047000010B5FFF7BBFE0149886010BD5E
:100870001800002001484068704700001800002060
:10088000002070472DE9F8014FF0000C002400947F
:1008900090F82420012A20D0012280F824204A68E0
:1008A0001F264FF47875072A1BD203685F6B95FAF1
:1008B000A5F8521EB8FA88F802FB08F806FA08F6FE
:1008C00027EA060695FAA5F5B5FA85F50F686A4395
:1008D00007FA02F232435A6334E0BDE8F80102201D
:1008E00070470D2A17D203681F6B95FAA5F8D21F1F
:1008F000B8FA88F802FB08F806FA08F627EA0606AE
:1009000095FAA5F5B5FA85F50F686A4307FA02F27C
:1009100032431A6316E00368DF6A95FAA5F80D3AC8
:10092000B8FA88F802FB08F806FA08F627EA06067D
:1009300095FAA5F5B5FA85F50F686A4307FA02F24C
:100940003243DA620A68382507260A2A17D3036871
:10095000DF6895FAA5F80A3AB8FA88F802FB08F8B1
:1009600006FA08F627EA060695FAA5F5B5FA85F51A
:100970008F686A4307FA02F23243DA6015E00368CF
:100980001F6995FAA5F8B8FA88F802FB08F806FA84
:1009900008F627EA060695FAA5F5B5FA85F58F68F3
:1009A0006A4307FA02F232431A610A68102A01D038
:1009B000112A0BD10268A2F18043B3F592330BD018
:1009C000816A41F0200181624FF0010C80F82440DF
:1009D000BDE8F80160467047936813F4000FF5D145
:1009E000936843F40003936009681029EED1094924
:1009F000094A0968B1FBF2F101EB8101490000915C
:100A000000990029E2D00099491E0091009900291F
:100A1000F9D1DBE70000002040420F0070B504462A
:100A20000025002C03D0A06A002610B107E00120A9
:100A300070BDE66284F82460204600F08DF8204600
:100A4000FFF789FD0146A06A00F0100252EA01009A
:100A500006D0A06A40F01000A0620121084670BDD7
:100A6000A06A20F4885040F00200A062E269606849
:100A7000E3680243022090FAA0F0B0FA80F003FA93
:100A800000F00243A068B0F5807F08D0012806D0AE
:100A90000020D4F814C0BCF1010F03D00BE04FF4D8
:100AA0008070F6E7E3B1A36A43F02003A362E36A30
:100AB00043F00103E3622368D3F804C02CF4694CCB
:100AC0004CEA0000586020688368DFF884C003EABD
:100AD0000C0313438360A068B0F5807F0ED017E04D
:100AE000A3694FF4604C9CFAACFC5B1EBCFA8CFC16
:100AF00003FA0CF3184340F40060DCE720694FF47C
:100B0000700393FAA3F3401EB3FA83F300FA03F5DC
:100B10002068C36A23F470032B43C3622068806893
:100B20000C4B1840904207D1E662A06A20F0020008
:100B300040F00100A06291E7A06A20F0020040F0BE
:100B40001000A062E06A40F00100E062012185E748
:100B5000FDF7E1FFFE0E1FFF00B587B00068A0F1B2
:100B60008041B1F592310FD10848816941F400719B
:100B70008161806900F4007001900320029003906D
:100B800002A9034800F09EF907B000BD0010024022
:100B9000000801402DE9F05F0446DFF838A2DAF8DA
:100BA0000020DFF834B220688C4D8D4E8D4FDFF879
:100BB0003882DFF83892584501D1082119E0A8425F
:100BC00001D1802115E0B04202D14FF4006110E064
:100BD000B84202D14FF400410BE0404502D14FF43E
:100BE000002106E0484502D14FF4000101E04FF03A
:100BF00000610A4236D0016811F0080F32D0016856
:100C000021F0080101602068584501D1082019E051
:100C1000A84201D1802015E0B04202D14FF400601B
:100C200010E0B84202D14FF400400BE0404502D141
:100C30004FF4002006E0484502D14FF4000001E0E7
:100C40004FF00060CAF80400606B40F00100606380
:100C5000042084F82100002084F82000216B09B1D1
:100C600020468847DAF800202068584501D1042141
:100C700019E0A84201D1402115E0B04202D14FF461
:100C8000806110E0B84202D14FF480410BE0404552
:100C900002D14FF4802106E0484502D14FF4800193
:100CA00001E04FF080610A4233D0016811F0040F77
:100CB0002FD0016811F0200F03D1016821F0040149
:100CC00001602068584501D1042019E0A84201D1F3
:100CD000402015E0B04202D14FF4806010E0B842ED
:100CE00002D14FF480400BE0404502D14FF4802008
:100CF00006E0484502D14FF4800001E04FF08060EB
:100D0000CAF80400112084F82100E16A09B12046E4
:100D10008847DAF800202068584501D1022119E0FF
:100D2000A84201D1202115E0B04202D14FF4007158
:100D300010E0B84202D14FF400510BE0404502D11F
:100D40004FF4003106E0484502D14FF4001101E0B4
:100D50004FF000710A423BD0016811F0020F37D00A
:100D6000016811F0200F03D1016821F00201016038
:100D70002068584501D1022019E0A84201D1202065
:100D800015E0B04202D14FF4007010E0B84202D139
:100D90004FF400500BE0404502D14FF4003006E024
:100DA000484502D14FF4001001E04FF00070CAF83E
:100DB0000400606B6063012084F82100002084F847
:100DC0002000A16A002903D02046BDE8F05F084753
:100DD000BDE8F09F00000240080002401C000240F5
:100DE0003000024044000240580002406C000240C3
:100DF00030B4002804D090F82110002319B104E089
:100E000030BC0120704780F82030022180F821108A
:100E100001680A686FF30D12D0F804C08468056990
:100E20004CEA040CC4682C434CEA040C44694CEAB8
:100E3000040C84694CEA040CC4694CEA040C4CEAC6
:100E400002020A604363012180F8211030BC0020B7
:100E5000704710B5044694F82000012825D00120E1
:100E600084F82000022084F821002068D0F800C017
:100E70002CF0010CC0F800C02046FFF7DFFC206812
:100E8000016841F0020101602068016841F004013D
:100E900001602068016841F0080101602068016874
:100EA00041F001010160002010BD022010BD31B5EC
:100EB00000F008F9044600F005F90099001B88428B
:100EC000F9D338BD2DE9F84F00239C46DFF8CC81DB
:100ED0000F2708F1040909F1040A0AF1040B0122A1
:100EE00002FA0CF60A683240B2427DD1DFF8B0E176
:100EF0004C68A4EB0E0574452BD00DDC032C34D0CC
:100F000005DC34B3012C19D0022C2FD11BE0112C9D
:100F100016D0122C2AD119E0B5F5881F19D006DC9D
:100F2000B5F5803F15D0B5F5801F1FD111E0B5F59F
:100F3000001F0ED0B5F5041F18D10AE0CB6815E0EC
:100F4000CB681B1D12E0CB6808330FE0CB680C3375
:100F50000CE08B6823B1012B04D00823466105E027
:100F6000042303E00823066100E00023B2F5807F3C
:100F700001D2054601E000F1040502D24FEA8C04DB
:100F800003E0ACF108044FEA84042E6807FA04FE7B
:100F900026EA0E0603FA04F446EA04042C604C68C0
:100FA00014F0805F72D03F4CA56945F00105A56142
:100FB000A46904F0010400942CF0030404F18044BB
:100FC00004F58034A6684FEA8C754FEA157507FA68
:100FD00005FE26EA0E0EA0F18046B6F584361AD03C
:100FE000B6F5806619D000E050E0B6F5806616D000
:100FF000B6F5806615D0042606FA05F545EA0E0515
:10100000A5604C6814F4803F0DD0D8F8004014431C
:10101000C8F800400CE00026EEE70126ECE70226C7
:10102000EAE70326E8E7D8F800409443C8F8004010
:101030004C6814F4003F05D0D9F800401443C9F8B7
:10104000004004E0D9F800409443C9F800404C68DF
:1010500014F4801F05D0DAF800401443CAF80040A9
:1010600004E0DAF800409443CAF800404C6814F4F5
:10107000001F05D0DBF800402243CBF8002005E03C
:10108000DBF8004024EA0202CBF800200CF1010C4E
:10109000BCF1100FFFF423AFBDE8F88F000401404E
:1010A00000001110001002408068084201D00120A9
:1010B000704700207047002A01D001617047090481
:1010C0000161704701480068704700000800002077
:1010D00002480168491C01607047000008000020B8
:1010E00010B50748016841F010010160032000F0CD
:1010F00077F8002000F006F800F016F8002010BD88
:101100000020024010B5044600F072FB4FF47A72E2
:10111000B0FBF2F001F082FA00222146501E00F0EE
:101120002BF8002010BD000008B50B48816941F084
:1011300001018161806900F001000090032000F04E
:101140004FF800221146501E00F016F8034841687F
:1011500021F0E061416008BD001002400000014044
:1011600000F01F01012202FA01F14009800000F1A4
:10117000E020C0F80011704710B4184B1B68C3F38F
:101180000223C3F1070CBCF1040F01D94FF0040C8A
:101190001C1D072C01D2002300E0DB1E012404FAF1
:1011A0000CFCACF1010C0CEA0101994004FA03F3C8
:1011B0005B1E1A401143002808DA00F00F0000F10E
:1011C000E020090180F8141D10BC704700F1E020F8
:1011D000090180F8001410BC704700000CED00E01D
:1011E00000F00700064A11684FF6FF03194041EA74
:1011F000002040F0FD7040F08060106070470000FB
:101200000CED00E00120010291FAA1F1B1FA81F1A7
:10121000890001F1844101F56021086070470000F8
:1012200010B586B001463FA0D0F808C043680268F8
:10123000C068CDF810C00393029205903DA00068ED
:10124000019000203C4C012934D0022957D01029AC
:101250002ED16168226812F0807F29D04FF470127D
:1012600092FAA2F201F47010B2FA82F2D04002AA0D
:10127000105C11F4803F10D061684FF4003292FA94
:10128000A2F201F40031B2FA82F2D14001AA515C1B
:101290002A4AB2FBF1F1484301E029494843616819
:1012A00011F4800F04D127494000A1FB0010400831
:1012B00006B010BD216A01F44072B2F5807F06D1FC
:1012C00011F0020F03D006B04FF4004010BDB2F58C
:1012D000007F07D1626A12F0020F03D049F6404046
:1012E00006B010BD4FF4407232EA0101F8D1216816
:1012F00011F4003FF4D006B04FF2244010BD00F0CE
:10130000A7FA61684FF4804292FAA2F201F44041D8
:10131000B2FA82F2D140491C4900B0FBF1F006B0AC
:1013200010BD000002030405060708090A0B0C0D96
:101330000E0F1010010200000010024000127A008F
:1013400000093D00ABAAAAAA2DE9F84304465E4E67
:10135000207810F0010F78D0F06940F08050F061F3
:10136000F06900F080500090584D286840F480707B
:101370002860FFF7A7FE0746286810F4807F0BD18E
:10138000FFF7A0FEC01B642802D90320BDE8F88344
:10139000286810F4807FF3D0306AA18800F4407090
:1013A00001F44071884278D0306A20F440704FF4E4
:1013B000803191FAA1F2B2FA82F2920002F18442F3
:1013C00002F584024FF00108C2F8008491FAA1F1FD
:1013D0000022B1FA81F1890001F1844101F5840113
:1013E000C1F80024306210F0020F50D0FFF76AFEFF
:1013F0000746022595FAA5F0B0FA80F040F04000CB
:10140000B8EB501F01D130680BE095FAA5F0B0FAA7
:1014100080F040F04000B5EB501F01D1306A00E091
:10142000706A95FAA5F1B1FA81F101F01F0108FA8D
:1014300001F108422BD141F28839FFF743FEC01B6E
:10144000484503D90320BDE8F88326E095FAA5F0C6
:10145000B0FA80F040F04000B8EB501F01D1316885
:101460000BE095FAA5F0B0FA80F040F04000B5EB43
:10147000501F01D1316A00E0716A95FAA5F0B0FA07
:1014800080F000F01F0008FA00F00142D5D0306A69
:10149000616820F4407008433062207810F0020F39
:1014A00005D07068A16820F440400843706020783F
:1014B00010F0100F05D07068E16820F48000084338
:1014C00070600020BDE8F88300100240007000400A
:1014D0002DE9F04704460F46DFF80C93D9F80000D9
:1014E000012200F0070053040226C04D4FF0007C9B
:1014F00041F28838B8427DD2D9F8000020F00700C8
:101500003843C9F80000D9F8000000F00700B842DD
:1015100002D00120BDE8F087207810F0020F05D03E
:101520006868A16820F0F00008436860207810F037
:10153000010F00F03D81606801280BD0022820D007
:1015400096FAA6F1B1FA81F141F0200149092FD0B4
:1015500029682EE093FAA3F1B1FA81F141F020015C
:10156000490901D0296800E0696A93FAA3F3B3FA44
:1015700083F303F01F039A40114226D10120BDE8F6
:10158000F0879CFAACF1B1FA81F141F020014909F0
:1015900001D0296800E0696A9CFAACF3B3FA83F3DE
:1015A00003F01F039A4011420FD10120BDE8F087DC
:1015B000696A96FAA6F3B3FA83F303F01F039A401D
:1015C000114202D10120BDE8F087696821F00301D2
:1015D00008436860FFF776FD0646606801280FD073
:1015E000022820D0686810F00C0F72D0FFF76AFD57
:1015F000801B00E02FE0404528D90320BDE8F0879C
:10160000686800F00C00042863D0FFF75BFD801BC6
:10161000404502D90320BDE8F087686800F00C005F
:101620000428F2D1C4E0686800F00C00082850D00B
:10163000FFF748FD801B404502D90320BDE8F08735
:10164000686800F00C000828F2D1B1E0686810F07A
:101650000C0FCBD1ACE0207810F0020F05D06868F9
:10166000A16820F0F00008436860207810F0010FB6
:1016700070D0606801280BD0022820D096FAA6F11D
:10168000B1FA81F141F02001490930D029682FE0F9
:1016900093FAA3F1B1FA81F141F02001490901D097
:1016A000296800E0696A93FAA3F3B3FA83F303F0BD
:1016B0001F039A40114227D10120BDE8F0879CFA10
:1016C000ACF1B1FA81F141F02001490902D0296859
:1016D00001E06DE0696A9CFAACF3B3FA83F303F0BE
:1016E0001F039A4011420FD10120BDE8F087696ABB
:1016F00096FAA6F3B3FA83F303F01F039A4011425C
:1017000002D10120BDE8F087696821F00301084398
:101710006860FFF7D7FC0646606801280DD00228F4
:101720001FD0686810F00C0F32D0FFF7CBFC801B85
:10173000404529D90320BDE8F087686800F00C0017
:10174000042825D0FFF7BEFC801B404503D90320A9
:10175000BDE8F0871CE0686800F00C000428F1D1B7
:1017600016E0686800F00C00082811D0FFF7AAFC0A
:10177000801B404502D90320BDE8F087686800F06F
:101780000C000828F2D103E0686810F00C0FCCD1EF
:10179000D9F8000020F007003843C9F80000D9F854
:1017A000000000F00700B84202D00120BDE8F08739
:1017B000207810F0040F05D06868E16820F4E0603C
:1017C00008436860207810F0080F06D06868216927
:1017D00020F4605040EAC10068600020FFF792FCEE
:1017E0000020BDE8F0870000002002400010024009
:1017F00010B500F043F808494968F02292FAA2F2C5
:1018000001F0F001B2FA82F2D140044A515CC840C2
:101810000349086010BD000000100240BA3C0008F7
:101820000000002010B5FFF7E3FF074949684FF4B7
:10183000E06292FAA2F201F4E061B2FA82F2D140DF
:10184000024A515CC84010BD00100240BA3C00087A
:1018500010B5FFF7CDFF074949684FF4605292FA7F
:10186000A2F201F46051B2FA82F2D140024A515C14
:10187000C84010BD00100240BA3C000885B01DA051
:10188000036882684168C0680193039202910490E2
:101890001CA0006800901C4B59681C4801F00C0209
:1018A000042A21D0082A1FD14FF4701C9CFAACFCEA
:1018B00001F47012BCFA8CFC22FA0CF20DF1040C4B
:1018C0001CF8022011F4803F10D059684FF4003307
:1018D00093FAA3F301F40031B3FA83F3D9401DF86E
:1018E0000110B0FBF1F0504305B07047084805B057
:1018F0005043704702030405060708090A0B0C0D44
:101900000E0F1010010200000010024000127A00B9
:1019100000093D002DE9F84F0446FC4D207841F2C6
:10192000883710F0010F4FF0010600F00181686860
:101930004FF4003800F00C00042808D0686800F06C
:101940000C0008281ED1686810F4803F1AD098FA5D
:10195000A8F0B0FA80F040F02000400901D02868DB
:1019600000E0686A98FAA8F1B1FA81F101F01F016C
:1019700006FA01F1084270D0606800286DD101209C
:10198000BDE8F88F286820F480302860286820F4AB
:1019900080202860FFF796FB814698FAA8F0B0FAFD
:1019A00080F040F02000400901D0286800E0686A1B
:1019B00098FAA8F1B1FA81F101F01F0106FA01F1DC
:1019C00008421DD0FFF77EFBA0EB0900B84202D908
:1019D0000320BDE8F88F98FAA8F0B0FA80F040F044
:1019E0002000400901D0286800E0686A98FAA8F150
:1019F000B1FA81F101F01F0106FA01F10842E1D1CB
:101A00006068B0F5803F1AD0F0B1B0F5A02F25D0B6
:101A1000286820F480302860286820F4802028601E
:101A20006068C0B3FFF74EFB814698FAA8F0B0FAA1
:101A300080F040F02000400919D0286818E028689C
:101A400040F480302860EBE7286820F4803028607C
:101A5000286820F480202860E2E769E0286840F4E4
:101A600080202860286840F480302860D8E7686AC1
:101A700098FAA8F1B1FA81F101F01F0106FA01F11B
:101A8000084255D1FFF71EFBA0EB0900B84203D96D
:101A90000320BDE8F88F15E098FAA8F0B0FA80F0BE
:101AA00040F02000400901D0286800E0686A98FAF8
:101AB000A8F1B1FA81F101F01F0106FA01F1084223
:101AC000E0D035E0FFF7FEFA814698FAA8F0B0FAC8
:101AD00080F040F02000400901D0286800E0686AEA
:101AE00098FAA8F1B1FA81F101F01F0106FA01F1AB
:101AF00008421DD0FFF7E6FAA0EB0900B84202D970
:101B00000320BDE8F88F98FAA8F0B0FA80F040F012
:101B10002000400901D0286800E0686A98FAA8F11E
:101B2000B1FA81F101F01F0106FA01F10842E1D199
:101B300020784FF0000910F0020F4FF002084ED04D
:101B400068684FF0F80B10F00C0F21D0686800F0B7
:101B50000C00082803D1686810F4803F18D0206971
:101B600088B396FAA6F0B0FA80F0800000F18440C5
:101B700000F584000660FFF7A5FA824698FAA8F0FF
:101B8000B0FA80F040F02000400929D0286828E011
:101B900098FAA8F0B0FA80F040F02000400901D097
:101BA000286800E0686A98FAA8F1B1FA81F101F0BA
:101BB0001F0106FA01F1084206D02069012803D06E
:101BC0000120BDE8F88F40E028689BFAABF261691C
:101BD000B2FA82F220F0F80091400843286075E0E4
:101BE000686A98FAA8F1B1FA81F101F01F0106FACA
:101BF00001F108421DD1FFF765FAA0EB0A00642845
:101C000002D90320BDE8F88F98FAA8F0B0FA80F066
:101C100040F02000400901D0286800E0686A98FA86
:101C2000A8F1B1FA81F101F01F0106FA01F10842B1
:101C3000E1D028689BFAABF26169B2FA82F220F037
:101C4000F80091400843286040E096FAA6F0B0FA08
:101C500080F0800000F1844000F58400C0F800901E
:101C6000FFF730FA824698FAA8F0B0FA80F040F018
:101C70002000400901D0286800E0686A98FAA8F1BD
:101C8000B1FA81F101F01F0106FA01F108421DD0FD
:101C9000FFF718FAA0EB0A00642802D90320BDE878
:101CA000F88F98FAA8F0B0FA80F040F020004009D0
:101CB00001D0286800E0686A98FAA8F1B1FA81F1C9
:101CC00001F01F0106FA01F10842E1D1207810F07D
:101CD000080F61D0A069D0B396FAA6F0B0FA80F0F0
:101CE000800000F1844000F58400C0F88064FFF7B4
:101CF000E9F9824698FAA8F0B0FA80F040F0600066
:101D0000B6EB501F04D128680EE00000001002401E
:101D100098FAA8F0B0FA80F040F06000B8EB501FDD
:101D200001D1286A00E0686A98FAA8F1B1FA81F155
:101D300001F01F0106FA01F108422AD1FFF7C2F9AA
:101D4000A0EB0A00642803D90320BDE8F88F24E043
:101D500098FAA8F0B0FA80F040F06000B6EB501F9F
:101D600001D128680BE098FAA8F0B0FA80F040F0B2
:101D70006000B8EB501F01D1286A00E0686A98FA49
:101D8000A8F1B1FA81F101F01F0106FA01F1084250
:101D9000D4D00120FFF78BF858E096FAA6F0B0FAFD
:101DA00080F0800000F1844000F58400C0F8809449
:101DB000FFF788F9824698FAA8F0B0FA80F040F070
:101DC0006000B6EB501F01D128680BE098FAA8F02C
:101DD000B0FA80F040F06000B8EB501F01D1286AE3
:101DE00000E0686A98FAA8F1B1FA81F101F01F01E8
:101DF00006FA01F1084229D0FFF764F9A0EB0A00C6
:101E0000642802D90320BDE8F88F98FAA8F0B0FA48
:101E100080F040F06000B6EB501F01D128680BE065
:101E200098FAA8F0B0FA80F040F06000B8EB501FCC
:101E300001D1286A00E0686A98FAA8F1B1FA81F144
:101E400001F01F0106FA01F10842D5D1207810F007
:101E5000040F70D0E86940F08050E861E86900F054
:101E600080500090DFF844B4DBF8000040F480704C
:101E7000CBF80000FFF726F98246DBF8000010F4EB
:101E8000807F0DD1FFF71EF9A0EB0A00642802D96C
:101E90000320BDE8F88FDBF8000010F4807FF1D05C
:101EA000286A20F001002862286A20F004002862D5
:101EB000FFF708F9824698FAA8F0B0FA80F040F0EF
:101EC0004000B6EB501F01D128680BE098FAA8F04B
:101ED000B0FA80F040F04000B8EB501F01D1286A02
:101EE00000E0686A98FAA8F1B1FA81F101F01F01E7
:101EF00006FA01F108422AD0FFF7E4F8A0EB0A0045
:101F0000B84202D90320BDE8F88F98FAA8F0B0FAD9
:101F100080F040F04000B6EB501F01D128680CE083
:101F200098FAA8F0B0FA80F040F04000B8EB501FEB
:101F300002D1286A01E0CFE0686A98FAA8F1B1FA04
:101F400081F101F01F0106FA01F10842D4D1E068E5
:101F500001281AD0F0B1052825D0286A20F0010008
:101F60002862286A20F004002862E06878B3FFF74E
:101F7000A9F8824698FAA8F0B0FA80F040F0400044
:101F8000B6EB501F18D1286823E0286A40F0010002
:101F90002862EAE7286A20F001002862286A20F017
:101FA00004002862E1E7286A40F004002862286AF9
:101FB00040F001002862D8E798FAA8F0B0FA80F063
:101FC00040F04000B8EB501F02D1286A01E035E034
:101FD000686A98FAA8F1B1FA81F101F01F0106FAD6
:101FE00001F1084278D1FFF76DF8A0EB0A00B84282
:101FF00002D90320BDE8F88F98FAA8F0B0FA80F073
:1020000040F04000B6EB501F01D128680BE098FA71
:10201000A8F0B0FA80F040F04000B8EB501F01D1BA
:10202000286A00E0686A98FAA8F1B1FA81F101F033
:102030001F0106FA01F10842D5D04DE0FFF742F842
:10204000824698FAA8F0B0FA80F040F04000B6EB73
:10205000501F01D128680BE098FAA8F0B0FA80F080
:1020600040F04000B8EB501F01D1286A00E0686AD8
:1020700098FAA8F1B1FA81F101F01F0106FA01F115
:10208000084229D0FFF71EF8A0EB0A00B84202D997
:102090000320BDE8F88F98FAA8F0B0FA80F040F07D
:1020A0004000B6EB501F01D128680BE098FAA8F069
:1020B000B0FA80F040F04000B8EB501F01D1286A20
:1020C00000E0686A98FAA8F1B1FA81F101F01F0105
:1020D00006FA01F10842D5D1E069D0B3696801F090
:1020E0000C0108297ED04FF0807A4FF0007802284A
:1020F00017D09AFAAAF0B0FA80F0800000F184407C
:1021000000F58400C0F80090FEF7DCFF044698FA62
:10211000A8F0B0FA80F040F0200040097ED0286896
:1021200097E09AFAAAF0B0FA80F0800000F18440BB
:1021300000F58400C0F80090FEF7C4FF074698FA47
:10214000A8F0B0FA80F040F02000400902D02868E2
:1021500001E0A5E0686A98FAA8F1B1FA81F101F00E
:102160001F0106FA01F108421CD0FEF7ABFFC01BAD
:10217000642802D90320BDE8F88F98FAA8F0B0FAD5
:1021800080F040F02000400901D0286800E0686A33
:1021900098FAA8F1B1FA81F101F01F0106FA01F1F4
:1021A0000842E2D1206AB0F5803F05D16868A16895
:1021B00020F4003008436860616A206A0843696857
:1021C00021F47411084368609AFAAAF0B0FA80F01A
:1021D000800000F1844000F584000660FEF772FF85
:1021E000044600E05FE098FAA8F0B0FA80F040F012
:1021F0002000400901D0286800E0686A98FAA8F138
:10220000B1FA81F101F01F0106FA01F1084247D14C
:10221000FEF758FF001B642804D900E018E00320F3
:10222000BDE8F88F98FAA8F0B0FA80F040F02000EE
:10223000400901D0296800E0696A98FAA8F0B0FA6C
:1022400080F000F01F0006FA00F00142E0D027E025
:10225000686A98FAA8F1B1FA81F101F01F0106FA53
:1022600001F108421CD0FEF72DFF001B642802D9A3
:102270000320BDE8F88F98FAA8F0B0FA80F040F09B
:102280002000400901D0296800E0696A98FAA8F0A6
:10229000B0FA80F000F01F0006FA00F00142E2D12F
:1022A0000020BDE8F88F0120BDE8F88F00700040E5
:1022B00010B4002814D099B1027C012A13D0012354
:1022C000037402224274124A126812F4C07F4FF063
:1022D00000020BD004214174027410BC012070472D
:1022E00010BC0120704710BC02207047D1F800C01C
:1022F00049684CEA010C07490C6824F003044CEAD5
:10230000040CC1F800C04374027410BC0020704774
:102310002C6C0040306C004070B50446002C03D09B
:10232000607C002610B105E0012070BD26742046B7
:1023300000F04EF802206074204600F03CF90425BD
:1023400010B16574012070BD204600F0A5FF10B1EA
:102350006574012070BD2068416821F0070141606B
:10236000A06820B11848016821F0010101601748F8
:102370000168A26821F46071114301606068B0F1E6
:10238000FF3F04D10120FEF74BFF98B1401E2168AA
:102390008A6822F00F0242EA10428A602168CA6805
:1023A00060F30F02CA60204600F094FF28B1657404
:1023B000012070BD6574012070BDE673012060735B
:1023C000A0736074002070BD306C00402C6C004025
:1023D00008B50068A0F18041B1F5205117D1FEF792
:1023E00011FF0B48C16941F00061C161C06900F093
:1023F000006000900120C10391FAA1F1B1FA81F1CE
:10240000890001F1844101F58401C1F8000408BD8F
:10241000001002402DE9F04104460D46002C3DD04D
:10242000002D3BD0207C01283BD0012626740220C1
:102430006074002A38D0E87800F025FFE0736878EF
:1024400000F021FF6073A87800F01DFFA073A27B4D
:10245000617BE07B00F074FF20732870204600F061
:102460005EFF01464FF46160B1FBF0F000271828D1
:1024700037D91E4AA2FB00201D4A0009504301EB38
:10248000C0152946204600F0B6FF4FF0040890B171
:1024900084F8118027740120BDE8F0810120BDE897
:1024A000F0810220BDE8F081E878E073687860731D
:1024B000A878A073CBE7204600F02AFFB0F1FF3FD9
:1024C0000FD0A8420DD200F5803101F5A34120467E
:1024D00000F07AFF28B184F8118027740120BDE84C
:1024E000F081667427740020BDE8F081ABAAAAAA27
:1024F0005DFDFFFF2DE9F04104460D46002C28D07C
:102500003DB3207C012827D0012626740220607468
:102510002AB3287800F0B7FE4FF4616100FB01F7A1
:10252000687800F0B0FEC0EB001007EB8007A878D9
:1025300000F0A9FE3D182946204600F05CFF002768
:102540004FF00408B8B184F8118027740120BDE869
:10255000F0810120BDE8F0810220BDE8F0812878FB
:102560004FF4616141436878C0EB001001EB8000DB
:10257000A9784518DFE72068416821F0050141602E
:10258000204600F0C5FEB0F1FF3F0FD0A8420DD2AB
:1025900000F5803101F5A341204600F015FF28B178
:1025A00084F8118027740120BDE8F08166742774D7
:1025B0000020BDE8F08170B50446002C0DD02068E5
:1025C000416821F008014160FEF77CFD0546206866
:1025D000406810F0080F02D00EE0012070BDFEF739
:1025E00071FD401BB0F57A7F01D9032070BD2068D2
:1025F000406810F0080FF2D0002070BD4FF0E021CD
:10260000042804D0086920F00400086170470869B4
:1026100040F004000861704770470000401EB0F1B0
:10262000807F01D3012070474FF0E0214861044AC8
:10263000F02010700020886107200861002070479A
:1026400023ED00E010B5FFF7E7FF10BD10B490F8E0
:102650003820012A2AD0012380F83830022280F85D
:1026600039200268D2F804C02CF0700CC2F804C003
:102670000268D2F804C00C684CEA040CC2F804C02A
:102680000268D2F808C02CF0800CC2F808C00268BA
:10269000D2F808C049684CEA0101916080F83930ED
:1026A000002180F8381010BC0020704710BC0220B8
:1026B000704710B50446002C03D094F8390010B1CF
:1026C00007E0012010BD002084F83800204600F00B
:1026D0000DF8022084F83900211D206800F046FF23
:1026E000012084F83900002010BD000000B587B03B
:1026F00000681649B0F1804F1ED0A0F18042B2F5BB
:10270000806217D1C86940F00200C861C86900F052
:10271000020001902020029002200390059002A95F
:102720000B48FEF7CFFB0B48416821F4406141F4B0
:102730000061416007B000BDC86940F00100C86198
:10274000C86900F00100019007B000BD0010024010
:10275000000C01400000014070B5044694F83800B8
:10276000012818D0012584F83850022084F8390057
:102770002068826822F0770222F47F428260086833
:1027800050283AD00EDC20285FD006DC002852D03A
:10279000102863D154E0022070BD30285AD0402860
:1027A0005CD13EE0602832D070280CD0B0F5805F5C
:1027B00003D0B0F5005F51D113E02068816821F0AB
:1027C000070181604AE0CB684A688968206800F0A8
:1027D0000EFF2068816821F0770141F07701816068
:1027E0003CE0CB684A688968206800F000FF2068F8
:1027F000816841F48041816030E0CA68496820689E
:1028000000F0CBFF5021206800F0FCFE26E0CA68F3
:102810004968206800F0D4FF6021206800F0F2FED3
:102820001CE0CA684968206800F0B7FF40212068B2
:1028300000F0E8FE12E00021206800F0E3FE0DE069
:102840001021206800F0DEFE08E02021206800F062
:10285000D9FE03E03021206800F0D4FE84F839501E
:10286000002084F8380070BD70B504460D4694F819
:10287000380001280DD0012684F83860022084F841
:10288000390042B1042A1AD0082A2DD00C2A53D17B
:102890003EE0022070BD2946206800F0BBFE2068A3
:1028A000816941F0080181612068816921F004019A
:1028B0008161206881692A69114381613CE0294670
:1028C000206800F0DBFE2068816941F400618161CD
:1028D0002068816921F480618161206881692A69A9
:1028E00041EA0221816127E02946206800F0FAFED2
:1028F0002068C16941F00801C1612068C16921F007
:102900000401C1612068C1692A691143C16113E0F2
:102910002946206800F01AFF2068C16941F400616F
:10292000C1612068C16921F48061C1612068C16909
:102930002A6941EA0221C16184F83960002084F8E3
:10294000380070BD10B50446002C03D094F839004F
:1029500010B107E0012010BD002084F838002046A7
:1029600000F00CF8022084F83900211D206800F0E6
:10297000FDFD012084F83900002010BD704710B51E
:1029800004460122206800F025FE2068A0F1804165
:10299000B1F5963103D1416C41F4004141642068A6
:1029A000016841F001010160002010BD10B504462E
:1029B0000022206800F00EFE216841F211129310EF
:1029C000A1F18040B0F5963009D1086A104206D1D5
:1029D000086A184203D1486C20F40040486420681B
:1029E000016A114206D1016A194203D1016821F03E
:1029F00001010160012084F83900002010BD7047FA
:102A000038B504462168086800F00100CA6802F47D
:102A10008072002807D032B1086848680090E06BE7
:102A200040F00100E0630868C0F34002486900F02C
:102A300001003AB130B10A684A680092E26B42F094
:102A40000402E2630A68C2F380023AB130B10A6854
:102A50004A680092E26B42F00202E2630A68C2F343
:102A6000C0023AB130B1086848680090E06B40F0AD
:102A70000800E0630868C0F34010C96801F0200155
:102A800018B111B1204600F015FF20680168C1F3AC
:102A9000C011C06800F0800019B110B1204600F0EC
:102AA000F1FF20680168C1F38011C06800F04000A8
:102AB00019B110B1204600F0E3FEE06B002805D00C
:102AC000012084F839002046FFF799FF38BD70B522
:102AD0000446002C04D094F83900002510B106E01B
:102AE000012070BD84F83850204600F021F8022003
:102AF00084F839002068C16821F40051C160204683
:102B000000F030FF2068016921F4904101612068E4
:102B1000416921F02A0141612068C16841F40051F6
:102B2000C160E563012084F83900002070BD000019
:102B3000F0B587B004462068A0F18041B1F59C3122
:102B400045D12448816941F480418161806900F464
:102B5000804001904FF40070029002200390032007
:102B600005901D4E02A93046FEF7ACF930150290D3
:102B700000250395049502A93046FEF7A3F9184EE7
:102B80001648306010207060B5608027F7603561AE
:102B90007561B561F5613046FEF72AF92663746206
:102BA000114E104830607560B560F7603561756131
:102BB000B561F5613046FEF71BF966637462002269
:102BC00011462520FEF7D8FA2520FEF7C9FA07B0EE
:102BD000F0BD000000100240000801404400024027
:102BE0009801002058000240D001002037B504466B
:102BF000134694F83900012804D0122802D003B0FB
:102C0000022030BD019A52B34BB394F8380001282A
:102C100028D0012084F83800A262A3850025E5634E
:102C200094F83900122820D0222084F83900616BF2
:102C300010488862616B1048C862616B0F48086376
:102C40002068011D606BFEF704F92068416941F0BE
:102C50004001416184F8385003B0002030BD03B01A
:102C6000012030BD03B0022030BD322084F839008D
:102C7000DDE70000033800083D380008E5370008AC
:102C800010B50068A0F18041B1F59C3111D109481F
:102C9000007801280DD1084C002020700121074840
:102CA00000F0C8FB012205490548FFF79FFF0120FE
:102CB000207010BD0D0000200C0000200E00002030
:102CC000580100207047000037B5044694F83900D9
:102CD000012804D0222802D003B0022030BD01997F
:102CE000002933D0002A31D094F83800012830D0A0
:102CF000012084F838002162A284E2840025E56383
:102D000094F83900222827D0122084F83900236B48
:102D100013489862236B1348D862236B12481863D8
:102D20002068134600F1040C6246206BFEF791F810
:102D300021686FF0400008602068416941F080011F
:102D4000416184F8385003B0002030BD03B0012049
:102D500030BD03B0022030BD322084F83900D6E700
:102D60004738000877380008E53700087047704793
:102D700010B507491022A1F1200000F0E9F905493A
:102D8000BDE810401022A1F1200000F0E1B90000E0
:102D9000280200203802002030B583B00C480B49CF
:102DA000016000248460C46044614FF46021C1610B
:102DB000446001250561FDF731FE00940195029400
:102DC00069460348FDF75EFD03B030BD00240140B5
:102DD0009C00002008B50D48416941F001014161A6
:102DE000406900F001000090002211460E20FEF71D
:102DF000C3F90E20FEF7B4F9002211460F20FEF7AA
:102E0000BBF9BDE808400F20FEF7AAB90010024048
:102E1000F0B587B02348816941F010018161816973
:102E200001F010010191816941F020018161816906
:102E300001F020010191816941F004018161816902
:102E400001F004010191816941F00801816180690B
:102E500000F008000190042002900124039402264F
:102E6000059602A91048FEF72DF802940025039557
:102E700004950E4F02A93846FEF724F840F20240AE
:102E800002900B480390049502A93846FEF71AF801
:102E9000E00202900394059602A93846FEF712F864
:102EA00007B0F0BD0010024000080140000C0140D6
:102EB0000000111030B585B01648154901604FF07B
:102EC000FF31416000248460FFF726FA8DF80C4042
:102ED0008DF80D408DF80E40012203A90D48FFF733
:102EE00009FB01258DF808508DF809508DF80A501E
:102EF0008DF80B40012202A90648FFF78BFA0095D6
:102F00000220019069460348FFF7D2F905B030BDB1
:102F100000280040CC00002010B586B00D484FF0CE
:102F2000804101604721416000248460C4600461E5
:102F3000FFF7BFFB4FF48050029002A90548FFF74E
:102F40000BFC10200090019469460248FFF77EFBBD
:102F500006B010BDE000002010B58EB01548144931
:102F60000160472141600024846040F2E731C16084
:102F70000461FFF79EFB4FF480500A900AA90D48A8
:102F8000FFF7EAFB0B48FFF7DDFC0894099408A95A
:102F90000848FFF75BFB60200190C8200290039473
:102FA0000594042201A90348FFF75EFC0EB010BD92
:102FB000000400401C0100200848074901604FF44C
:102FC0001651416000218160C16001610C224261A3
:102FD0008161C161FFF77BBD0038014058010020CD
:102FE0002DE9F05F354C034620608C466160344A21
:102FF000904200DB334A11F1FF4F00D2324A614662
:103000001846FDF7F1F80546A060304940F2E73771
:10301000884201DD27624DE02D49A5F500004FF003
:103020000008884241D2E66801213046FDF752F996
:103030002946FDF7DCF82169FDF784F88146E0694F
:10304000FDF76BF94946FDF7D5F88146A069FDF714
:1030500064F92946FDF7CEF8824631462846FDF749
:10306000C3F883466069FDF758F95946FDF7C2F881
:103070008346606AFDF751F95946FDF763F85146FA
:10308000FDF760F84946FDF75DF8FDF765F9206248
:103090002661E5606062002802DAC4F8208009E059
:1030A000B0F57A7F06DB276204E015F1FF4F01D30C
:1030B000C4F82080208C80B2BDE8F09F240000205E
:1030C00000002041000070420000C8420000A04003
:1030D0000000204030B59DB005461B4800904720B9
:1030E00001900024029440F2E73103910494684671
:1030F000FFF7DFFA4FF48051189118A96846FFF7DF
:103100002BFB6846FFF71EFC1694179416A9684619
:10311000FFF79CFA60200F901095119413940422ED
:103120000FA96846FFF7A0FB0848007828B10421E2
:103130006846FFF724FC1DB030BD04216846FFF748
:1031400035FC1DB030BD0000000400401800002018
:103150000260C160416081600020704730B44FF070
:10316000000C8368002A12D9C46805685B1C2C44D3
:103170009C4200D8C36844689C4208D011F8014BB7
:1031800085682C7083600CF1010C9445ECD330BC45
:1031900060467047F0B4D0F804C005680CE09CF8B5
:1031A00000408C420DD0C46806680CF1010C344418
:1031B000644501D8D0F80CC08468644501D06D1E08
:1031C000EDD28468644502D1F0BC00207047B5F1AF
:1031D000FF3F08D0C468066826440CF10104A642EB
:1031E0000ED8C4680CE0F0BC0020704726788E42F0
:1031F0000BD0C6680768641C3E44A64200D8C46869
:103200008668A64201D06D1EF0D28168A14202D12B
:10321000F0BC00207047B5F1FF3F0AD0C1680668D6
:103220003144661CB14200D8C66801684C1B0021BD
:103230000EE0F0BC002070471CF8017B0D46491CD5
:103240005755C56807683D44654501D8D0F80CC09E
:10325000B44506D0994204D205688D4201D9641E56
:10326000EAD202290ADC0021C268ACF1010C9445C3
:1032700004D2C26803681A44A2F1010CC0F804C069
:10328000F0BC08467047010901EB8101490000F0DC
:103290000F000844C0B2704770B50446FDF712FF36
:1032A00005462068406810F0200F0CD1FDF70AFF9A
:1032B000401BB0F57A7F01D9032070BD20684068BB
:1032C00010F0200FF2D02068416841F010014160F9
:1032D000002070BD70B504462068416821F01001DF
:1032E0004160FDF7EFFE05462068406810F0200FB2
:1032F0000CD1FDF7E7FE401BB0F57A7F01D9032022
:1033000070BD2068406810F0200FF2D0002070BD22
:103310000068016A406A80B240EA01407047006874
:10332000816989B2C26993B2826992B2914203D033
:10333000C06962F31F40704743EA014070470000D4
:1033400010B400F5FA63C1EBC10C0CEB011C40F6A4
:1033500039640CFB04FC02EBDC3218461044184ABA
:10336000DFF860C04FF4C874032913D2591E00EB74
:103370009103A2FB0120B1FBF4F1A3EB5010084430
:10338000001D62460021E0FB0C214908A1EBC101B0
:10339000084411E000EB9301A2FB0320A1EB5010C5
:1033A000B3FBF4F10844074A801C0021E0FB0C2128
:1033B0004908A1EBC101084410BCC0B2704700002D
:1033C0001F85EB514992244970B505460E460024ED
:1033D0002846FFF761FF08B101240AE02968300C94
:1033E00008622968B0B248622846FFF773FF00B14F
:1033F0000124204670BD70B505460E4600242846BF
:10340000FFF74AFF08B101240AE02968300C8861FF
:103410002968B0B2C8612846FFF75CFF00B10124FB
:10342000204670BD0B460246FF210148FFF7B2BEA1
:10343000080200200A4601460148FFF78FBE00003F
:103440000802002001494880704700001800002051
:1034500010B5FCF76BFF0349FCF7FEFE024948601C
:1034600010BD00000000C842180000207047000096
:1034700000B58FB00849009108490870002805D0B0
:1034800004216846FFF77BFA0FB000BD04216846AF
:10349000FFF78CFA0FB000BD0004004018000020B8
:1034A00010B5FDF715FEBDE81040FFF7CBB870B5BD
:1034B00094B005250A954FF480300B9000240C94AD
:1034C00001210D910226119612904FF4E0101390F5
:1034D0000AA8FEF71FFA0595069607947002089051
:1034E0000994022105A8FDF7F3FF03200090F001E5
:1034F00001904FF4404002906846FDF725FFFEF72B
:1035000077F94FF4FA51B0FBF1F0FFF787F800209C
:10351000FFF774F800221146501EFDF72DFE14B07F
:1035200070BD00000E48016841F001010160416872
:103530000C4A11404160016821F4102121F0807192
:103540000160016821F480210160416821F4FE01DD
:1035500041604FF41F0181600349C0030860704758
:10356000001002400000FFF808ED00E030B40268EF
:10357000DFF854C0154C164B604506D0B0F1804FB3
:1035800003D0A04201D0984203D122F070024D68CE
:103590002A43604506D0B0F1804F03D0A04201D04D
:1035A000984203D122F44072CB681A4302608A68C1
:1035B000C2620A688262604501D109690163012122
:1035C000416130BC70470000002C01400004004005
:1035D0000008004001238B40D0F820C02CEA0303F0
:1035E0000362036A02FA01F1194301627047D0F8DD
:1035F00008C02CF47F4C42EA0322114341EA0C013B
:1036000081607047826822F07002114341F0070127
:103610008160704710B4026A22F001020262036AFC
:103620004268D0F818C02CF0700C2CF0030C0C6819
:1036300044EA0C0C23F002038C6823430E4CA04296
:1036400006D123F00803CC6844EA030323F0040303
:1036500009D122F4807222F400724C6944EA020219
:103660008C6944EA02024260C0F818C049684163AC
:10367000036210BC70470000002C014010B4026AC5
:1036800022F010020262036A4268D0F818C02CF4DB
:10369000E04C2CF4407C0C684CEA042C23F0200312
:1036A0008C6843EA04130E4CA04206D123F0800339
:1036B000CC6843EA041323F0400309D122F480626A
:1036C00022F400624C6942EA84028C6942EA840274
:1036D0004260C0F818C049688163036210BC70473B
:1036E000002C014010B4026A22F480720262036A64
:1036F0004268D0F81CC02CF0700C2CF0030C0C6845
:1037000044EA0C0C23F400738C6843EA04230E4C47
:10371000A04206D123F40063CC6843EA042323F4D7
:10372000806309D122F4805222F400524C6942EAAB
:1037300004128C6942EA04124260C0F81CC0496855
:10374000C163036210BC7047002C014010B4026AD0
:1037500022F480520262036A4268D0F81CC02CF442
:10376000E04C2CF4407C0C684CEA042C23F400530D
:103770008C6843EA0433A0F18044B4F5963404D154
:1037800022F480424C6942EA84124260C0F81CC0B4
:1037900049680164036210BC7047036AD0F820C016
:1037A0002CF0010CC0F820C0D0F818C02CF0F00CA0
:1037B0004CEA021223F00A03194382610162704746
:1037C000036A23F010030362D0F818C0036A2CF4D4
:1037D000704C4CEA023223F0A00343EA01118261EB
:1037E0000162704710B5406A0021C185C184012182
:1037F00080F83910C16B41F01001C163FFF7FFF889
:1038000010BD10B50146486A0968096811F0200F1B
:103810000DD10021C18501684A6922F040024A6148
:1038200090F83910322905D0012180F83910FFF7BE
:1038300027FA10BD122180F83910F8E710B5406A58
:10384000FFF740FA10BD10B50146486A09680968DB
:1038500011F0200F02D0FFF789FA10BD0021C184BA
:1038600001684A6922F080024A610068C16841F03B
:103870004001C16010BD10B5406AFFF778FA10BD75
:1038800010B50168CA6822F04002CA6090F8391089
:1038900032290BD001684A6922F001024A610121F4
:1038A00080F83910FFF762FA002010BD222180F85D
:1038B0003910F7E710B590F83910222903D03229D2
:1038C00001D0022010BD8168B1F5805F11D001697F
:1038D00019B30168496801F07F02816A4B1C836259
:1038E0000A70C18D491E0904090CC1851CD0002035
:1038F00010BD816A02693AB102685268D2B20A8088
:10390000816A491C8162ECE702685268C2F30802CE
:103910000A80816A891C8162E3E701684A68816ADA
:103920004B1C83620A70DCE70168CA6822F020023F
:10393000CA6090F83910322910D00168CA6822F4A0
:103940008072CA6001684A6922F001024A6101215D
:1039500080F83910FFF794F9002010BD122180F88B
:103960003910F7E72DE9F041044620680169E26863
:1039700021F44051114301612169A0680843616944
:1039800001432068C26822F4037222F4A05211435A
:10399000C16020684169A26921F44071114341610D
:1039A0002068374D3226A0F18041B1F59C3133D0EB
:1039B000FDF738FF00EBC00101EB001061688900E2
:1039C000B0FBF1F0A5FB00104709FDF72BFF00EB62
:1039D000C00101EB001061688900B0FBF1F8FDF750
:1039E00021FF00EBC00101EB001061688900B0FB12
:1039F000F1F0A5FB001040096FF01801484308EBF7
:103A0000800006EB0010A5FB00102168400967F359
:103A10001F108860BDE8F081FDF71AFF00EBC001C0
:103A200001EB001061688900B0FBF1F0A5FB00100C
:103A30004709FDF70DFF00EBC00101EB00106168C5
:103A40008900B0FBF1F8FDF703FF00EBC00101EBCB
:103A5000001061688900B0FBF1F0A5FB001040097F
:103A60006FF01801484308EB800006EB0010A5FB3F
:103A700000102168400967F31F108860BDE8F081DD
:103A80001F85EB5190F83910122903D0322901D04B
:103A9000022070478168B1F5805F0CD0016A4A1C32
:103AA0000262026809785160C18C491E0904090C40
:103AB000C18410D019E0016A02680988C1F30801C5
:103AC0005160016919B1016A491C0162ECE7016AA0
:103AD000891C0162E8E70168CA6822F08002CA60B6
:103AE0000068C16841F04001C160002070470000DB
:103AF0000148FEF785BF000058010020014606225C
:103B00000148FFF773B80000580100200146062263
:103B10000148FFF7D9B800005801002002E008C8AA
:103B2000121F08C1002AFAD170477047002001E037
:103B300001C1121F002AFBD1704730B40446002097
:103B40004FF0030C0022E023A15C4840002110F05C
:103B5000010F02D083EA500000E04008491CC9B2BE
:103B60000829F4D3511CCAB26245EDD330BC70476A
:103B7000FDF7B6FAFFF79BFCFFF74AF9FFF72AF9C2
:103B8000FFF70AF9FFF796F9FFF7C6F9FFF7E4F92F
:103B9000FFF712FA434C206880470122424943480C
:103BA000FFF724F80127DFF80881424E002530781E
:103BB000012806D17570062104F14A00FFF732FC96
:103BC000777094F84A00FF2855D194F84F00FF28E9
:103BD00051D1216C04F14B00884794F84E1081427A
:103BE00049D194F84B00052842D2DFE800F04103A8
:103BF0000E1937006168B4F84C008847062204F1BA
:103C00004A012A48FFF760F832E06169B4F84C00D5
:103C10008847062204F14A012448FFF755F827E0B7
:103C2000E0698047B060D4F84A106164B4F84E107F
:103C3000A4F848104146FCF7DDFAFCF7A6FBA4F80F
:103C40004600216C04F14500884784F848000622AC
:103C500004F144011548FFF737F809E0216A94F8A8
:103C60004C008847062204F14A011048FFF72CF85F
:103C70001420FDF71CF9C4F84A50A4F84E506564AE
:103C8000A4F84850E06980478146A0698047E26B0C
:103C900049469047B080216B88476420FDF707F9BB
:103CA00085E700004C0000200E0000205801002095
:103CB0000000C8420C0000200008000000000102C3
:103CC000030401020304060708090000EC3C000895
:103CD000000000209C0000001C3B0008883D0008FC
:103CE0009C000020AC0500002C3B000800A24A0408
:103CF000000C014000000000000100000000000076
:103D0000000000000100320000002042000000001E
:103D100000000000000000000000000000000000A3
:103D200000000000900100000300000003000000FC
:103D30000000000000000000712D0008453400085C
:103D40000B08000805080008110800085134000895
:103D50007508000865080008713400085F0800084D
:103D60006D34000881080008D53000080D3B0008BC
:103D7000FD3A0008E12F00083B3B0008000000006E
:083D800000000000000000003B
:04000005080000ED02
:00000001FF
