:020000040800F2
:100000006806002001010008090100080B01000832
:100010000D0100080F010008110100080000000098
:1000200000000000000000000000000013010008B4
:100030001501000800000000170100089D370008A6
:100040001B0100081B0100081B0100081B01000820
:100050001B0100081B0100081B0100081B01000810
:100060001B0100081B0100081B0100081B01000800
:100070001B0100081B010008C1070008CD0700088C
:100080001B0100081B0100081B0100081B010008E0
:100090001B0100081B0100081B0100081B010008D0
:1000A0001B0100081B0100081B0100081B010008C0
:1000B000553800081B0100081B0100081B0100083F
:1000C0001B0100081B0100081B0100081B010008A0
:1000D0001B010008653E00081B0100081B01000809
:1000E0001B0100081B0100081B010008DFF80CD0F1
:1000F00000F006FA00480047E53E000868060020C8
:100100000648804706480047FEE7FEE7FEE7FEE7B1
:10011000FEE7FEE7FEE7FEE7FEE7FEE70D38000834
:10012000ED000008202A04DB203A21FA02F0002129
:10013000704721FA02F3D040C2F1200291400843F7
:1001400019467047F0B480EA0102D40F4200B2EBC6
:10015000410F02D20246084611464A0042D0C30D62
:10016000DDB2C1F3C752AD1A202D35DAC1F3160145
:1001700041F4000204B15242C5F1200602FA06F130
:100180002A411044B3EBD05F23D0C4B1012DA0EBC2
:10019000C35009DCF0BC4FF0004202EAC352DBB2AC
:1001A00000F5000000F021B9400000F1807000EB84
:1001B000C350A0F1807040EAD170490009E04908BD
:1001C00041EAC071A0EBC35000F50000400800EB0D
:1001D000C350F0BC00F000B96142012202EB4101C2
:1001E000001BF6E7F0BC704781F00041AAE780F001
:1001F0000040A7E780EA010210B502F0004340008A
:1002000022D04A001FD0010E01EB1261C0F356004C
:10021000C2F3560240F4000042F40002A0FB0220A8
:1002200000047F39140400D0401C50EA124001D46D
:100230004000491EC2B20C0604EBD010401C40081E
:10024000802A02D003E0002010BD20F00100002928
:1002500000DA0020184310BD30B480EA010202F039
:10026000004530F0004221F0004013D090B1C30DA2
:10027000D40DC2F31601C0F31600E41A41F40001D4
:1002800040F400027D34914201D3641C00E0490037
:10029000002C02DA30BC002070474FF4000000232D
:1002A000914201D3891A034340084FEA4101F7D133
:1002B00051B1914202D14FF0004105E002D24FF01E
:1002C000010101E06FF0010103EBC450284430BC90
:1002D00000F082B8420005D0C0F3C75252429142AA
:1002E00001DC0020704700EBC150704770B521F071
:1002F000004303430CD0C1F30A550024D5EB040599
:1003000064EB0403D617AD1AB34102DB00200146AB
:1003100070BD201841EB025170BDC10F80EAE07042
:100320000844CA079623002100F05FB896230022F4
:10033000114600F05AB80EB5C10F80EAE0700844CB
:10034000CA07002140F233438DE80E000A460B46EF
:1003500000F088F803B000BD00F0004220F000403B
:10036000C10DC0F3160040F400007F2901DA00201F
:100370007047962903DCC1F19601C84001E0963927
:100380008840002AF4D04042704701F0004330B466
:1003900021F0004150EA010206D00A0DA2F5607278
:1003A000C1F31301002A02DC30BC00207047440F67
:1003B00044EAC104C100E01830BC00EBC25000F0B8
:1003C0000BB80000002801DBC0F10040002901DB70
:1003D000C1F10041814270470029A8BF7047401C0D
:1003E000490008BF20F00100704710B4B0FA80FC4B
:1003F00000FA0CF050EA010404BF10BC704749B188
:10040000CCF1200421FA04F411FA0CF118BF0121F7
:1004100021430843A3EB0C01CB1D4FEA00614FEAD7
:10042000102042BF002010BC704700EBC3501044A6
:100430000029A4BF10BC7047401C490008BF20F031
:10044000010010BC704710B5141E73F1000408DAE7
:10045000401C41F1000192185B411A4301D120F088
:10046000010010BD2DE9F04D92469B4611B1B1FA45
:1004700081F202E0B0FA80F22032904600F052F8A9
:1004800004460F4640EA0A0041EA0B0153465A4629
:10049000084313D0114653EA010019D0C8F14002B5
:1004A0005046FFF73FFE05460E4650465946424627
:1004B00000F038F8084305D0012004E02046394612
:1004C000BDE8F08D0020054346EAE0762C43374333
:1004D0000A986305E40AA0EB08000022FD0A44EA3A
:1004E00047540A3002D500200146E9E701051019FA
:1004F0006941DDE9084500196941BDE8F04DA2E711
:10050000064C074D06E0E06840F0010394E8070060
:1005100098471034AC42F6D3FFF7ECFDA43F000837
:10052000C43F0008202A04DB203A00FA02F1002030
:1005300070479140C2F1200320FA03F31943904021
:10054000704700000449054A31F8101052F82000A5
:10055000002200F0A8BF0000903F00080400002027
:100560000449054A31F8101052F82000012200F029
:100570009ABF0000903F00080400002010B500F072
:10058000A7F800F04FF8332000F0BCF800F0A0F816
:1005900000F048F8CC2000F0B5F8442000F0B2F8A4
:1005A000322000F0DFF800F093F800F03BF8CC20A8
:1005B00000F0A8F8BE2000F0A5F800F05FF80446AF
:1005C00000F05CF8000201B251EA04006FF003048D
:1005D00001D5C043401CFFF7AEFE2246FFF786FE62
:1005E000BDE81040FFF7D1BE1FB50020019002907A
:1005F0000390042000906946014800F05BFE1FBD97
:10060000000801401FB50020029004200090112036
:100610000190032003906946014800F04BFE1FBD86
:100620000008014070B50024FFF7DEFF124D04E022
:10063000641CE4B2012000F095F80421284600F083
:100640002BFF10B1642CF3D30FE0642C0DD20024E7
:1006500004E0641CE4B2012000F084F80421284680
:1006600000F01AFF18B1F02C04D3012070BDF02C5B
:10067000EFD3FAE7002070BD000801402DE9F041FA
:100680000026124F354600BFFFF7BCFF00220421B1
:10069000384600F008FF0A2000F064F8FFF7A4FFD6
:1006A0000421384600F0F8FE01280DD000242D204A
:1006B00000F058F8AC4034436D1CEDB2E6B2082DA2
:1006C000E2D33046BDE8F0810124F0E700080140A4
:1006D00010B5FFF797FF0A4C00220421204600F0D6
:1006E000E2FE40F2EE2000F03DF801220421204617
:1006F00000F0D9FEBDE810400F2000F033B8000034
:100700000008014070B50546FFF77CFF144E002439
:1007100015F0010F4FEA55054FF000024FF00401AC
:1007200030460BD000F0BFFE082000F01BF801227D
:100730000421304600F0B7FE3A200AE000F0B3FE94
:10074000462000F00FF801220421304600F0ABFEF5
:10075000022000F007F8641CE4B2082CD8D370BD66
:100760000008014070B54FF0E0240546666901F0CD
:100770004BF90A49B0FBF1F04543A1690020A26999
:100780008A42FCD002D2A1EB020102E0A6EB0203F6
:10079000194408441146A842F1D370BD00127A00F2
:1007A0000020FFF7CFBE0020FFF7DABE03484088E5
:1007B000002801D000F0B1BC7047000018000020F4
:1007C000014800F01DBB000098010020014800F026
:1007D00017BB0000D0010020D0F800C0CCF80430D6
:1007E0004368102B04D0036899600068C2607047AA
:1007F00003689A600068C160704700001149098869
:10080000114A1288002815D0012801D00020704715
:100810004EF6EE6012B139B1AB207047814201D182
:100820000020704740207047824201D1402070472D
:100830000020704711B11AB1AB20704700207047FB
:1008400040207047008000080080010810B586B085
:10085000002004900090124C029420460122039242
:1008600000F0D4F928B904A9684600F061FC00281A
:1008700013D1002213462146012000F0BDFC0028C0
:100880000BD10848029000F0C1F928B904A96846C4
:1008900000F04EFC002800D1002006B010BD000082
:1008A00000800008008001082DE9F04F85B0002489
:1008B000651EA046CDF81080764F3988764E308878
:1008C000CDF8008002974FF00109CDF80C902A0C6A
:1008D000DFF8C8A1DFF8C8B1002974D0A1F56E41D6
:1008E000EE3935D0A1F58851113907D0FFF7AEFFA9
:1008F000002800D1002005B0BDE8F08F68B1A0F558
:100900006E41EE3904D0FFF7A1FF0028F3D1F1E7E3
:10091000384600F07BF960B111E0384600F076F916
:100920000028E7D104A9684600F002FC0028E2D1C3
:10093000E0E704A9684600F0FBFB0028DBD10022B9
:1009400013463146012000F057FC0028D3D1D1E7EF
:1009500038B1904248D13046029600F057F998B32A
:1009600039E0F9883AF81400814200D125B2AC424E
:100970000CD04B4900F0F2F8012807D03AF81400E7
:10098000BBF8001000F012F90028B4D1601C84B24A
:10099000032CE6D3002213463946012000F02CFC3C
:1009A0000028A8D1CDF8008030460296CDF80C90F2
:1009B00000F02CF900289DD104A9684600F0B8FB8E
:1009C000002898D196E714E0FFE704A9684600F0F4
:1009D000AFFB00288FD1002213463946012000F0DA
:1009E0000BFC002887D185E7FFF730FF002882D174
:1009F00080E780B1904214D13046029600F006F9AB
:100A000000287FF477AF04A9684600F091FB002826
:100A10007FF471AF6EE7FFF719FF00287FF46BAF2B
:100A200068E7F1883AF81400814200D125B2AC425F
:100A30000DD01B4900F092F8012808D03AF81400B4
:100A4000BBF8001000F0B2F800287FF454AF601C2F
:100A500084B2032CE5D3002213463146012000F076
:100A6000CBFB00287FF447AFCDF8008038460297D3
:100A7000CDF80C9000F0CAF800287FF43BAF04A931
:100A8000684600F055FB00283FF434AF05B0BDE8E0
:100A9000F08F000000800008008001082400002082
:100AA000AC0000202DE9F04786B007460E46DFF87F
:100AB0009CA0D0460024A146CDF810900020FFF75E
:100AC0009DFE234D402806D018B1AB2006B0BDE8EE
:100AD000F087A84655464EF6EE62002341460120B7
:100AE00000F08AFB0028F1D13146384600F05EF86C
:100AF0000028EBD1174EDFF860A036F81400B8429A
:100B00000CD0154900F02AF8012807D036F8140057
:100B1000BAF8001000F04AF80028D7D1601C84B25F
:100B2000032CEAD3CDF8009002950120039004A98C
:100B3000684600F0FDFA0028C8D10022134641465D
:100B4000012000F059FB06B0BDE8F08700800008E6
:100B50000080010824000020AC0000202DE9F041B5
:100B600004460E460125104F0020FFF747FEAB2834
:100B700010D007EB8021401CBA1E02EB8022881C9B
:100B800082420DD91388A34207D132F8020C30807B
:100B9000002505E0AB20BDE8F081121F8242F1D8AC
:100BA0002846BDE8F08100000080000870B50546C9
:100BB0000E46144C0120FFF721FEAB2810D004EBA9
:100BC00080241149401C01EB80218C4206D2206810
:100BD000B0F1FF3F06D0241D8C42F8D3802070BDB9
:100BE000AB2070BD324600232146012000F004FBFB
:100BF0000028F6D1A11C2A46BDE870400023012040
:100C000000F0FABA00800008FF7F00084FF0010CE6
:100C1000084A90420AD84FF6FF730188994202D0E1
:100C20004FF0000C02E0001D9042F6D91FFA8CF044
:100C300070470000FF83000870B504460D46294642
:100C40002046FFF7B3FF802805D129462046BDE89E
:100C50007040FFF727BF70BD06490020C8610648F5
:100C6000016941F004010161016941F04001016144
:100C700070470000B000002000200240064A00211A
:100C8000D16106490A6942F002020A6148610869B5
:100C900040F0400008617047B00000200020024092
:100CA000044B0022DA61044A136943F00103136123
:100CB00001807047B0000020002002401049C86841
:100CC00010F0100F0F4803D0C26942F00202C26157
:100CD000CA6812F0040F03D0C26942F00102C26177
:100CE000CA6912F0010F07D0C26942F00402C26162
:100CF000C86920F00100C8611420C8607047000076
:100D000000200240B000002070B5044600F0D2FB85
:100D10000646164DE86810F0010F0ED0B4F1FF3F03
:100D200007D024B100F0C6FB801BA04201D90320EC
:100D300070BDE86810F0010FF0D1E86810F0200FE6
:100D400001D02020E860E86810F0100F07D1E868B3
:100D500010F0040F03D1E86910F0010F03D0FFF782
:100D6000ADFF012070BD002070BD000000200240DA
:100D70000100054803D00122114600F094BB002277
:100D8000012100F090BB0000000C014030B587B09D
:100D9000044604210F4801F04EFF0F48B0FBF4F465
:100DA0000C480E49016040F2E73141600025856042
:100DB000C460056101F0E5FB6020009060080190CF
:100DC0000295049504226946024801F077FE07B0B7
:100DD00030BD00001C01002040190100000400404B
:100DE000002070470148806870470000180000200C
:100DF000014840687047000018000020002070473C
:100E00002DE9F05F0446DFF838A2DAF80020DFF8B9
:100E100034B220688C4D8D4E8D4FDFF83882DFF86C
:100E20003892584501D1082119E0A84201D180210A
:100E300015E0B04202D14FF4006110E0B84202D197
:100E40004FF400410BE0404502D14FF4002106E091
:100E5000484502D14FF4000101E04FF000610A4221
:100E600036D0016811F0080F32D0016821F0080176
:100E700001602068584501D1082019E0A84201D13D
:100E8000802015E0B04202D14FF4006010E0B8427B
:100E900002D14FF400400BE0404502D14FF4002056
:100EA00006E0484502D14FF4000001E04FF0006039
:100EB000CAF80400606B40F001006063042084F80D
:100EC0002100002084F82000216B09B120468847CA
:100ED000DAF800202068584501D1042119E0A84221
:100EE00001D1402115E0B04202D14FF4806110E001
:100EF000B84202D14FF480410BE0404502D14FF49B
:100F0000802106E0484502D14FF4800101E04FF016
:100F100080610A4233D0016811F0040F2FD00168BC
:100F200011F0200F03D1016821F004010160206855
:100F3000584501D1042019E0A84201D1402015E014
:100F4000B04202D14FF4806010E0B84202D14FF4B9
:100F500080400BE0404502D14FF4802006E0484538
:100F600002D14FF4800001E04FF08060CAF8040025
:100F7000112084F82100E16A09B120468847DAF897
:100F800000202068584501D1022119E0A84201D172
:100F9000202115E0B04202D14FF4007110E0B842B8
:100FA00002D14FF400510BE0404502D14FF4003123
:100FB00006E0484502D14FF4001101E04FF0007106
:100FC0000A423BD0016811F0020F37D0016811F0DE
:100FD000200F03D1016821F002010160206858450B
:100FE00001D1022019E0A84201D1202015E0B04231
:100FF00002D14FF4007010E0B84202D14FF400501B
:101000000BE0404502D14FF4003006E0484502D1E4
:101010004FF4001001E04FF00070CAF80400606B5C
:101020006063012084F82100002084F82000A16A78
:10103000002903D02046BDE8F05F0847BDE8F09FD7
:1010400000000240080002401C0002403000024044
:1010500044000240580002406C00024030B40028B6
:1010600004D090F82110002319B104E030BC012015
:10107000704780F82030022180F8211001680A684A
:101080006FF30D12D0F804C0846805694CEA040CB3
:10109000C4682C434CEA040C44694CEA040C84698F
:1010A0004CEA040CC4694CEA040C4CEA02020A60E3
:1010B0004363012180F8211030BC0020704710B537
:1010C000044694F82000012825D0012084F820004F
:1010D000022084F821002068D0F800C02CF0010C18
:1010E000C0F800C02046FFF777FB2068016841F098
:1010F000020101602068016841F00401016020687C
:10110000016841F0080101602068016841F00101B7
:101110000160002010BD022010BD31B500F0CAF9F9
:10112000044600F0C7F90099001B8842F9D338BD86
:101130002DE9F04705460F464FF00109DFF89C8086
:1011400098F8180001280CD0012088F818002868A9
:10115000234E022808D04CF25030FFF7D5FDA8B13D
:1011600036E00220BDE8F0874CF25030FFF7CCFDAE
:1011700028BB0120FFF770FD4CF25030FFF7C4FD93
:101180008146306920F00400306121E04FF0FF30EB
:101190003860AC68E86804EB8020A04218D920468B
:1011A000FFF76CFD4CF25030FFF7AEFD8146306921
:1011B00020F0020030615FEA090001D03C6007E0E6
:1011C00004F58064E968A86800EB8120A042E6D8B5
:1011D000002088F818004846BDE8F087B0000020DD
:1011E000002002400348016941F0800101610020B4
:1011F00070470000002002402DE9F047074688466E
:1012000015461E460024DFF87C9099F81800012846
:1012100008D0012089F818004CF25030FFF774FD17
:1012200018B129E00220BDE8F087012F1CD0022F61
:101230001CD00427002F1FD9DFF84CA0220128461C
:101240003146FEF76FFF81B208EB4400FFF728FD3F
:101250004CF25030FFF758FDDAF8101021F0010180
:10126000CAF8101040B903E00127E3E70227E1E7DD
:10127000611CCCB2BC42E1D3002189F81810BDE852
:10128000F0870000B00000200020024006480169FD
:1012900011F0800F05D005494160054941600020EB
:1012A000704701207047000000200240230167457D
:1012B000AB89EFCD2DE9F84F00239C46DFF8CC81B8
:1012C0000F2708F1040909F1040A0AF1040B0122AD
:1012D00002FA0CF60A683240B2427DD1DFF8B0E182
:1012E0004C68A4EB0E0574452BD00DDC032C34D0D8
:1012F00005DC34B3012C19D0022C2FD11BE0112CAA
:1013000016D0122C2AD119E0B5F5881F19D006DCA9
:10131000B5F5803F15D0B5F5801F1FD111E0B5F5AB
:10132000001F0ED0B5F5041F18D10AE0CB6815E0F8
:10133000CB681B1D12E0CB6808330FE0CB680C3381
:101340000CE08B6823B1012B04D00823466105E033
:10135000042303E00823066100E00023B2F5807F48
:1013600001D2054601E000F1040502D24FEA8C04E7
:1013700003E0ACF108044FEA84042E6807FA04FE87
:1013800026EA0E0603FA04F446EA04042C604C68CC
:1013900014F0805F72D03F4CA56945F00105A5614E
:1013A000A46904F0010400942CF0030404F18044C7
:1013B00004F58034A6684FEA8C754FEA157507FA74
:1013C00005FE26EA0E0EA0F18046B6F584361AD048
:1013D000B6F5806619D000E050E0B6F5806616D00C
:1013E000B6F5806615D0042606FA05F545EA0E0521
:1013F000A5604C6814F4803F0DD0D8F80040144329
:10140000C8F800400CE00026EEE70126ECE70226D3
:10141000EAE70326E8E7D8F800409443C8F800401C
:101420004C6814F4003F05D0D9F800401443C9F8C3
:10143000004004E0D9F800409443C9F800404C68EB
:1014400014F4801F05D0DAF800401443CAF80040B5
:1014500004E0DAF800409443CAF800404C6814F401
:10146000001F05D0DBF800402243CBF8002005E048
:10147000DBF8004024EA0202CBF800200CF1010C5A
:10148000BCF1100FFFF423AFBDE8F88F000401405A
:1014900000001110001002408068084201D00120B5
:1014A000704700207047002A01D00161704709048D
:1014B0000161704701480068704700000800002083
:1014C00010B50446002C0AD02068C16811F0010F45
:1014D00007D0C06810F0020F03D0012010BD01201A
:1014E00010BD607B20B900202073204600F018F862
:1014F00002206073216845F25550086020684168F9
:10150000626821F007011143416020688168A26888
:101510006FF30B011143816001206073002010BD47
:1015200070472DE9F0410446207B012818D00126A0
:10153000267302206073FFF7BDFF05462068C06870
:101540004FF0000710F0020F12D0FFF7B3FF401B5F
:10155000B0F57A7F07D9032060732773BDE8F08167
:101560000220BDE8F0812068C06810F0020FECD1C5
:1015700021684AF6AA200860667327730020BDE838
:10158000F081017B012910D00121017302224273F5
:1015900003684CF6CC421A6003684AF6AA221A6025
:1015A0004173002101730020704702207047000042
:1015B00002480168491C01607047000008000020D3
:1015C00010B50748016841F010010160032000F0E8
:1015D00079F8002000F006F800F016F8002010BDA1
:1015E0000020024010B5044600F00EFA4FF47A7263
:1015F000B0FBF2F000F078FF00222146501E00F010
:101600002DF8002010BD000008B50C48816941F09C
:1016100001018161806900F001000090032000F069
:1016200051F800221146501E00F018F80448416895
:1016300021F0E06141F00071416008BD00100240FE
:101640000000014000F01F01012202FA01F14009EF
:10165000800000F1E020C0F80011704710B4184B72
:101660001B68C3F30223C3F1070CBCF1040F01D9BB
:101670004FF0040C1C1D072C01D2002300E0DB1EE0
:10168000012404FA0CFCACF1010C0CEA01019940B4
:1016900004FA03F35B1E1A401143002808DA00F035
:1016A0000F0000F1E020090180F8141D10BC704704
:1016B00000F1E020090180F8001410BC7047000020
:1016C0000CED00E000F00700064A11684FF6FF033A
:1016D000194041EA002040F0FD7040F08060106049
:1016E000704700000CED00E02DE9F04704460F467E
:1016F000DFF80C93D9F80000012200F00700530432
:101700000226C04D4FF0007C41F28838B8427DD2AD
:10171000D9F8000020F007003843C9F80000D9F8D4
:10172000000000F00700B84202D00120BDE8F087B9
:10173000207810F0020F05D06868A16820F0F00052
:1017400008436860207810F0010F00F03D81606868
:1017500001280BD0022820D096FAA6F1B1FA81F127
:1017600041F0200149092FD029682EE093FAA3F116
:10177000B1FA81F141F02001490901D0296800E066
:10178000696A93FAA3F3B3FA83F303F01F039A4051
:10179000114226D10120BDE8F0879CFAACF1B1FAE4
:1017A00081F141F02001490901D0296800E0696A0E
:1017B0009CFAACF3B3FA83F303F01F039A4011428F
:1017C0000FD10120BDE8F087696A96FAA6F3B3FA53
:1017D00083F303F01F039A40114202D10120BDE8B8
:1017E000F087696821F0030108436860FFF762FE33
:1017F0000646606801280FD0022820D0686810F0E3
:101800000C0F72D0FFF756FE801B00E02FE0404522
:1018100028D90320BDE8F087686800F00C00042890
:1018200063D0FFF747FE801B404502D90320BDE887
:10183000F087686800F00C000428F2D1C4E0686802
:1018400000F00C00082850D0FFF734FE801B404504
:1018500002D90320BDE8F087686800F00C00082872
:10186000F2D1B1E0686810F00C0FCBD1ACE0207879
:1018700010F0020F05D06868A16820F0F00008435E
:101880006860207810F0010F70D0606801280BD0DC
:10189000022820D096FAA6F1B1FA81F141F0200198
:1018A000490930D029682FE093FAA3F1B1FA81F108
:1018B00041F02001490901D0296800E0696A93FAE2
:1018C000A3F3B3FA83F303F01F039A40114227D125
:1018D0000120BDE8F0879CFAACF1B1FA81F141F04A
:1018E0002001490902D0296801E06DE0696A9CFA8B
:1018F000ACF3B3FA83F303F01F039A4011420FD104
:101900000120BDE8F087696A96FAA6F3B3FA83F37B
:1019100003F01F039A40114202D10120BDE8F08775
:10192000696821F0030108436860FFF7C3FD0646BC
:10193000606801280DD002281FD0686810F00C0FD5
:1019400032D0FFF7B7FD801B404529D90320BDE801
:10195000F087686800F00C00042825D0FFF7AAFD86
:10196000801B404503D90320BDE8F0871CE0686870
:1019700000F00C000428F1D116E0686800F00C00BB
:10198000082811D0FFF796FD801B404502D903209F
:10199000BDE8F087686800F00C000828F2D103E089
:1019A000686810F00C0FCCD1D9F8000020F00700C7
:1019B0003843C9F80000D9F8000000F00700B84229
:1019C00002D00120BDE8F087207810F0040F05D088
:1019D0006868E16820F4E06008436860207810F0EF
:1019E000080F06D06868216920F4605040EAC10001
:1019F00068600020FFF7F6FD0020BDE8F0870000DA
:101A0000002002400010024010B500F043F80849E1
:101A10004968F02292FAA2F201F0F001B2FA82F2E1
:101A2000D140044A515CC8400349086010BD000021
:101A300000100240923F00080000002010B5FFF7A0
:101A4000E3FF074949684FF4E06292FAA2F201F419
:101A5000E061B2FA82F2D140024A515CC84010BD46
:101A600000100240923F000810B5FFF7CDFF074974
:101A700049684FF4605292FAA2F201F46051B2FA4E
:101A800082F2D140024A515CC84010BD00100240B1
:101A9000923F000885B01DA0036882684168C06855
:101AA00001930392029104901CA0006800901C4BCB
:101AB00059681C4801F00C02042A21D0082A1FD1C1
:101AC0004FF4701C9CFAACFC01F47012BCFA8CFC54
:101AD00022FA0CF20DF1040C1CF8022011F4803FE4
:101AE00010D059684FF4003393FAA3F301F4003196
:101AF000B3FA83F3D9401DF80110B0FBF1F0504365
:101B000005B07047084805B050437047020304050C
:101B1000060708090A0B0C0D0E0F10100102000039
:101B20000010024000127A0000093D002DE9F84F34
:101B30000446FC4D207841F2883710F0010F4FF039
:101B4000010600F0018168684FF4003800F00C00D5
:101B5000042808D0686800F00C0008281ED16868C6
:101B600010F4803F1AD098FAA8F0B0FA80F040F054
:101B70002000400901D0286800E0686A98FAA8F1BE
:101B8000B1FA81F101F01F0106FA01F1084270D0AB
:101B9000606800286DD10120BDE8F88F286820F426
:101BA00080302860286820F480202860FFF782FCBD
:101BB000814698FAA8F0B0FA80F040F02000400981
:101BC00001D0286800E0686A98FAA8F1B1FA81F1BA
:101BD00001F01F0106FA01F108421DD0FFF76AFC6F
:101BE000A0EB0900B84202D90320BDE8F88F98FAAB
:101BF000A8F0B0FA80F040F02000400901D0286839
:101C000000E0686A98FAA8F1B1FA81F101F01F01C9
:101C100006FA01F10842E1D16068B0F5803F1AD0C0
:101C2000F0B1B0F5A02F25D0286820F480302860CE
:101C3000286820F4802028606068C0B3FFF73AFC71
:101C4000814698FAA8F0B0FA80F040F020004009F0
:101C500019D0286818E0286840F480302860EBE745
:101C6000286820F480302860286820F480202860CC
:101C7000E2E769E0286840F480202860286840F4A2
:101C800080302860D8E7686A98FAA8F1B1FA81F143
:101C900001F01F0106FA01F1084255D1FFF70AFCD5
:101CA000A0EB0900B84203D90320BDE8F88F15E086
:101CB00098FAA8F0B0FA80F040F02000400901D076
:101CC000286800E0686A98FAA8F1B1FA81F101F099
:101CD0001F0106FA01F10842E0D035E0FFF7EAFB08
:101CE000814698FAA8F0B0FA80F040F02000400950
:101CF00001D0286800E0686A98FAA8F1B1FA81F189
:101D000001F01F0106FA01F108421DD0FFF7D2FBD6
:101D1000A0EB0900B84202D90320BDE8F88F98FA79
:101D2000A8F0B0FA80F040F02000400901D0286807
:101D300000E0686A98FAA8F1B1FA81F101F01F0198
:101D400006FA01F10842E1D120784FF0000910F0C5
:101D5000020F4FF002084ED068684FF0F80B10F0F9
:101D60000C0F21D0686800F00C00082803D16868C7
:101D700010F4803F18D0206988B396FAA6F0B0FA24
:101D800080F0800000F1844000F584000660FFF7D9
:101D900091FB824698FAA8F0B0FA80F040F020005B
:101DA000400929D0286828E098FAA8F0B0FA80F015
:101DB00040F02000400901D0286800E0686A98FAE5
:101DC000A8F1B1FA81F101F01F0106FA01F1084210
:101DD00006D02069012803D00120BDE8F88F40E03B
:101DE00028689BFAABF26169B2FA82F220F0F8003F
:101DF00091400843286075E0686A98FAA8F1B1FA42
:101E000081F101F01F0106FA01F108421DD1FFF72F
:101E100051FBA0EB0A00642802D90320BDE8F88F2B
:101E200098FAA8F0B0FA80F040F02000400901D004
:101E3000286800E0686A98FAA8F1B1FA81F101F027
:101E40001F0106FA01F10842E1D028689BFAABF2C3
:101E50006169B2FA82F220F0F800914008432860EC
:101E600040E096FAA6F0B0FA80F0800000F18440DD
:101E700000F58400C0F80090FFF71CFB824698FA3A
:101E8000A8F0B0FA80F040F02000400901D02868A6
:101E900000E0686A98FAA8F1B1FA81F101F01F0137
:101EA00006FA01F108421DD0FFF704FBA0EB0A007F
:101EB000642802D90320BDE8F88F98FAA8F0B0FA98
:101EC00080F040F02000400901D0286800E0686AF6
:101ED00098FAA8F1B1FA81F101F01F0106FA01F1B7
:101EE0000842E1D1207810F0080F61D0A069D0B38A
:101EF00096FAA6F0B0FA80F0800000F1844000F578
:101F00008400C0F88064FFF7D5FA824698FAA8F0FA
:101F1000B0FA80F040F06000B6EB501F04D12868A2
:101F20000EE000000010024098FAA8F0B0FA80F02D
:101F300040F06000B8EB501F01D1286A00E0686AE9
:101F400098FAA8F1B1FA81F101F01F0106FA01F146
:101F500008422AD1FFF7AEFAA0EB0A00642803D9A1
:101F60000320BDE8F88F24E098FAA8F0B0FA80F0DA
:101F700040F06000B6EB501F01D128680BE098FAE2
:101F8000A8F0B0FA80F040F06000B8EB501F01D12B
:101F9000286A00E0686A98FAA8F1B1FA81F101F0C4
:101FA0001F0106FA01F10842D4D00120FFF7B5F86D
:101FB00058E096FAA6F0B0FA80F0800000F1844074
:101FC00000F58400C0F88094FFF774FA824698FA0E
:101FD000A8F0B0FA80F040F06000B6EB501F01D1DD
:101FE00028680BE098FAA8F0B0FA80F040F06000A2
:101FF000B8EB501F01D1286A00E0686A98FAA8F18E
:10200000B1FA81F101F01F0106FA01F1084229D06D
:10201000FFF750FAA0EB0A00642802D90320BDE8BC
:10202000F88F98FAA8F0B0FA80F040F06000B6EBB4
:10203000501F01D128680BE098FAA8F0B0FA80F0A0
:1020400040F06000B8EB501F01D1286A00E0686AD8
:1020500098FAA8F1B1FA81F101F01F0106FA01F135
:102060000842D5D1207810F0040F70D0E86940F014
:102070008050E861E86900F080500090DFF844B4D7
:10208000DBF8000040F48070CBF80000FFF712FA94
:102090008246DBF8000010F4807F0DD1FFF70AFACA
:1020A000A0EB0A00642802D90320BDE8F88FDBF812
:1020B000000010F4807FF1D0286A20F0010028622F
:1020C000286A20F004002862FFF7F4F9824698FAA3
:1020D000A8F0B0FA80F040F04000B6EB501F01D1FC
:1020E00028680BE098FAA8F0B0FA80F040F04000C1
:1020F000B8EB501F01D1286A00E0686A98FAA8F18D
:10210000B1FA81F101F01F0106FA01F108422AD06B
:10211000FFF7D0F9A0EB0A00B84202D90320BDE8CE
:10212000F88F98FAA8F0B0FA80F040F04000B6EBD3
:10213000501F01D128680CE098FAA8F0B0FA80F09E
:1021400040F04000B8EB501F02D1286A01E0CFE018
:10215000686A98FAA8F1B1FA81F101F01F0106FA54
:1021600001F10842D4D1E06801281AD0F0B1052865
:1021700025D0286A20F001002862286A20F0040097
:102180002862E06878B3FFF795F9824698FAA8F0DC
:10219000B0FA80F040F04000B6EB501F18D128682C
:1021A00023E0286A40F001002862EAE7286A20F06C
:1021B00001002862286A20F004002862E1E7286A0A
:1021C00040F004002862286A40F001002862D8E745
:1021D00098FAA8F0B0FA80F040F04000B8EB501F39
:1021E00002D1286A01E035E0686A98FAA8F1B1FAEC
:1021F00081F101F01F0106FA01F1084278D1FFF7E1
:1022000059F9A0EB0A00B84202D90320BDE8F88FC3
:1022100098FAA8F0B0FA80F040F04000B6EB501FFA
:1022200001D128680BE098FAA8F0B0FA80F040F0ED
:102230004000B8EB501F01D1286A00E0686A98FAA4
:10224000A8F1B1FA81F101F01F0106FA01F108428B
:10225000D5D04DE0FFF72EF9824698FAA8F0B0FAF3
:1022600080F040F04000B6EB501F01D128680BE031
:1022700098FAA8F0B0FA80F040F04000B8EB501F98
:1022800001D1286A00E0686A98FAA8F1B1FA81F1F0
:1022900001F01F0106FA01F1084229D0FFF70AF9FF
:1022A000A0EB0A00B84202D90320BDE8F88F98FAE3
:1022B000A8F0B0FA80F040F04000B6EB501F01D11A
:1022C00028680BE098FAA8F0B0FA80F040F04000DF
:1022D000B8EB501F01D1286A00E0686A98FAA8F1AB
:1022E000B1FA81F101F01F0106FA01F10842D5D1DE
:1022F000E069D0B3696801F00C0108297ED04FF085
:10230000807A4FF00078022817D09AFAAAF0B0FA33
:1023100080F0800000F1844000F58400C0F8009057
:10232000FFF7C8F8044698FAA8F0B0FA80F040F039
:10233000200040097ED0286897E09AFAAAF0B0FA07
:1023400080F0800000F1844000F58400C0F8009027
:10235000FFF7B0F8074698FAA8F0B0FA80F040F01E
:102360002000400902D0286801E0A5E0686A98FAD8
:10237000A8F1B1FA81F101F01F0106FA01F108425A
:102380001CD0FFF797F8C01B642802D90320BDE8D2
:10239000F88F98FAA8F0B0FA80F040F020004009D9
:1023A00001D0286800E0686A98FAA8F1B1FA81F1D2
:1023B00001F01F0106FA01F10842E2D1206AB0F5EE
:1023C000803F05D16868A16820F400300843686048
:1023D000616A206A0843696821F4741108436860DF
:1023E0009AFAAAF0B0FA80F0800000F1844000F57B
:1023F00084000660FFF75EF8044600E05FE098FAAC
:10240000A8F0B0FA80F040F02000400901D0286820
:1024100000E0686A98FAA8F1B1FA81F101F01F01B1
:1024200006FA01F1084247D1FFF744F8001B64287F
:1024300004D900E018E00320BDE8F88F98FAA8F06E
:10244000B0FA80F040F02000400901D0296800E097
:10245000696A98FAA8F0B0FA80F000F01F0006FA56
:1024600000F00142E0D027E0686A98FAA8F1B1FADA
:1024700081F101F01F0106FA01F108421CD0FFF7BB
:1024800019F8001B642802D90320BDE8F88F98FAD8
:10249000A8F0B0FA80F040F02000400901D029688F
:1024A00000E0696A98FAA8F0B0FA80F000F01F0026
:1024B00006FA00F00142E2D10020BDE8F88F0120C9
:1024C000BDE8F88F007000404FF0E021042804D0F0
:1024D000086920F0040008617047086940F00400B2
:1024E0000861704770470000401EB0F1807F01D343
:1024F000012070474FF0E0214861044AF02010703D
:1025000000208861072008610020704723ED00E06B
:1025100010B5FFF7E7FF10BD7047704710B490F893
:102520003820012A2AD0012380F83830022280F88E
:1025300039200268D2F804C02CF0700CC2F804C034
:102540000268D2F804C00C684CEA040CC2F804C05B
:102550000268D2F808C02CF0800CC2F808C00268EB
:10256000D2F808C049684CEA0101916080F839301E
:10257000002180F8381010BC0020704710BC0220E9
:10258000704710B50446002C03D094F8390010B100
:1025900007E0012010BD002084F83800204600F03C
:1025A0000DF8022084F83900211D206801F058F947
:1025B000012084F83900002010BD000000B587B06C
:1025C00000681A49B0F1804F1ED0A0F18042B2F5E8
:1025D000806217D1C86940F00200C861C86900F084
:1025E000020001902020029002200390059002A991
:1025F0000F48FEF75FFE0F48416821F4406141F447
:102600000061416007B000BDC86940F00100C861C9
:10261000C86900F001000190002211461C20FFF75C
:102620001DF81C20FFF70EF807B000BD0010024097
:10263000000C01400000014070B5044694F83800D9
:10264000012818D0012584F83850022084F8390078
:102650002068826822F0770222F47F428260086854
:1026600050283AD00EDC20285FD006DC002852D05B
:10267000102863D154E0022070BD30285AD0402881
:102680005CD13EE0602832D070280CD0B0F5805F7D
:1026900003D0B0F5005F51D113E02068816821F0CC
:1026A000070181604AE0CB684A688968206801F0C8
:1026B00018F92068816821F0770141F07701816085
:1026C0003CE0CB684A688968206801F00AF9206814
:1026D000816841F48041816030E0CA6849682068BF
:1026E00001F015FA5021206801F006F926E0CA68C9
:1026F0004968206801F01EFA6021206801F0FCF8AA
:102700001CE0CA684968206801F001FA402120688D
:1027100001F0F2F812E00021206801F0EDF80DE080
:102720001021206801F0E8F808E02021206801F07D
:10273000E3F803E03021206801F0DEF884F8395036
:10274000002084F8380070BD704770B504462068DA
:1027500001694FF0000511F0020F17D0C16811F0A8
:10276000020F13D0E91E01610120207620688069E4
:1027700010F0030F03D02046FFF7E6FF05E02046E8
:1027800000F0C8F8204600F025FA25762068016997
:1027900011F0040F18D0C16811F0040F14D06FF0BD
:1027A00004010161022020762068806910F4407FD6
:1027B00003D02046FFF7C8FF05E0204600F0AAF846
:1027C000204600F007FA25762068016911F0080F0D
:1027D00018D0C16811F0080F14D06FF00801016122
:1027E000042020762068C06910F0030F03D0204633
:1027F000FFF7AAFF05E0204600F08CF8204600F025
:10280000E9F925762068016911F0100F18D0C16828
:1028100011F0100F14D06FF0100101610820207624
:102820002068C06910F4407F03D02046FFF78CFF7A
:1028300005E0204600F06EF8204600F0CBF9257642
:102840002068016911F0010F09D0C16811F0010F72
:1028500005D06FF001010161204600F015FA2068F3
:10286000016911F0800F09D0C16811F0800F05D007
:102870006FF0800101612046FFF74EFE206801697C
:1028800011F0400F09D0C16811F0400F05D06FF072
:1028900040010161204600F019FA2068016911F039
:1028A000200F0BD0C16811F0200F07D06FF020016E
:1028B00001612046BDE87040FFF72FBE70BD70B5C6
:1028C000044694F8380001280DD0012584F83850CA
:1028D000022084F8390042B1042A0AD0082A0CD018
:1028E0000C2A11D10DE0022070BD206801F00CF817
:1028F0000AE0206801F03CF806E0206801F06CF87E
:1029000002E0206801F09CF884F83950002084F837
:10291000380070BD704710B50446002C03D094F801
:10292000390010B107E0012010BD002084F8380004
:10293000204600F00CF8022084F83900211D2068A0
:1029400000F08EFF012084F83900002010BD704790
:1029500010B504460029226806D0042909D00829A8
:102960000CD00C2913D10EE0D06840F00200D060EA
:102970000DE0D06840F00400D06008E0D06840F07E
:102980000800D06003E0D06840F01000D060012261
:10299000206800F099FF2068A0F18041B1F59631E0
:1029A00003D1416C41F4004141642068016841F069
:1029B00001010160002010BD10B504460029226805
:1029C00006D0042909D008290CD00C2913D10EE017
:1029D000D06820F00200D0600DE0D06820F0040044
:1029E000D06008E0D06820F00800D06003E0D06834
:1029F00020F01000D0600022206800F065FF216800
:102A000041F211139A10A1F18040B0F5963009D12E
:102A1000086A184206D1086A104203D1486C20F4B3
:102A2000004048642068016A194206D1016A1142D7
:102A300003D1016821F001010160002010BD70B5D3
:102A400004460D46002C03D094F8390010B107E07D
:102A5000012070BD002084F83800204600F015F8F1
:102A6000022084F83900211D206800F0F9FE20685A
:102A7000016821F0080101602068016829430160B4
:102A8000012084F83900002070BD704710B504465D
:102A900001220021206800F017FF01220421206894
:102AA00000F012FF2068A0F18041B1F5963103D10A
:102AB000416C41F400414164002010BD70B50446F2
:102AC0000D4694F8380001280DD0012684F83860AE
:102AD000022084F8390042B1042A1AD0082A2DD0E5
:102AE0000C2A53D13EE0022070BD2946206800F038
:102AF0000BFF2068816941F00801816120688169CC
:102B000021F004018161206881692A691143816192
:102B10003CE02946206800F02BFF2068816941F4E1
:102B2000006181612068816921F480618161206890
:102B300081692A6941EA0221816127E029462068EA
:102B400000F04AFF2068C16941F00801C1612068B6
:102B5000C16921F00401C1612068C1692A6911437A
:102B6000C16113E02946206800F06AFF2068C1694E
:102B700041F40061C1612068C16921F48061C161D3
:102B80002068C1692A6941EA0221C16184F839607B
:102B9000002084F8380070BD10B50446002C03D026
:102BA00094F8390010B107E0012010BD002084F82E
:102BB0003800204600F00CF8022084F83900211D6E
:102BC000206800F04DFE012084F83900002010BD7F
:102BD0007047000010B504460421094800F02BF8A6
:102BE00000212046FFF7E8FE06490878042804D0B3
:102BF000052801D10320087010BD0220087010BD07
:102C00001C0100201600002010B504460122206897
:102C100000F05AFE2068A0F18041B1F5963103D151
:102C2000416C41F4004141642068016841F00101B8
:102C30000160002010BD10B504460022206800F09D
:102C400043FE216841F211129310A1F18040B0F5CA
:102C5000963009D1086A104206D1086A184203D199
:102C6000486C20F4004048642068016A114206D193
:102C7000016A194203D1016821F0010101600120BC
:102C800084F83900002010BD704770B5044694F8F0
:102C90003800012818D0012584F83850022084F823
:102CA0003900204600F0F3FE2068C16821F04001A1
:102CB000C1602068C16821F48041C16084F8395046
:102CC000002084F8380070BD022070BD7047704746
:102CD00038B504462168086800F00100CA6802F4AB
:102CE0008072002807D032B1086848680090E06B15
:102CF00040F00100E0630868C0F34002486900F05A
:102D000001003AB130B10A684A680092E26B42F0C1
:102D10000402E2630A68C2F380023AB130B10A6881
:102D20004A680092E26B42F00202E2630A68C2F370
:102D3000C0023AB130B1086848680090E06B40F0DA
:102D40000800E0630868C0F34010C96801F0200182
:102D500018B111B1204600F067FF20680168C1F387
:102D6000C011C06800F0800019B110B1204601F018
:102D700043F820680168C1F38011C06800F040008A
:102D800019B110B1204600F035FFE06B002805D0E6
:102D9000012084F839002046FFF799FF38BD70B54F
:102DA0000446002C04D094F83900002510B106E048
:102DB000012070BD84F83850204600F021F8022030
:102DC00084F839002068C16821F40051C1602046B0
:102DD00000F082FF2068016921F4904101612068C0
:102DE000416921F02A0141612068C16841F4005124
:102DF000C160E563012084F83900002070BD000047
:102E0000F0B587B004462068A0F18041B1F59C314F
:102E100045D12448816941F480418161806900F491
:102E2000804001904FF40070029002200390032034
:102E300005901D4E02A93046FEF73CFA301502906F
:102E400000250395049502A93046FEF733FA184E83
:102E50001648306010207060B5608027F7603561DB
:102E60007561B561F5613046FEF7F8F82663746266
:102E7000114E104830607560B560F760356175615E
:102E8000B561F5613046FEF7E9F8666374620022C9
:102E900011462520FEF7E2FB2520FEF7D3FB07B005
:102EA000F0BD000000100240000801404400024054
:102EB0009801002058000240D001002037B5044698
:102EC000134694F83900012804D0122802D003B028
:102ED000022030BD019A52B34BB394F83800012858
:102EE00028D0012084F83800A262A3850025E5637C
:102EF00094F83900122820D0222084F83900616B20
:102F000010488862616B1048C862616B0F480863A3
:102F10002068011D606BFEF7D2F82068416941F01E
:102F20004001416184F8385003B0002030BD03B047
:102F3000012030BD03B0022030BD322084F83900BA
:102F4000DDE70000773B0008B13B0008593B000873
:102F500010B50068A0F18041B1F59C310DD1074C4E
:102F6000002020700121064800F0D6FB0122044910
:102F70000448FFF7A3FF0120207010BD0C000020C3
:102F80000E000020580100207047000037B50446AD
:102F900094F83900012804D0222802D003B002207E
:102FA00030BD0199002933D0002A31D094F838007F
:102FB000012830D0012084F838002162A284E28404
:102FC0000025E56394F83900222827D0122084F8E0
:102FD0003900236B13489862236B1348D862236B24
:102FE000124818632068134600F1040C6246206BF7
:102FF000FEF765F821686FF04000086020684169BD
:1030000041F08001416184F8385003B0002030BDA8
:1030100003B0012030BD03B0022030BD322084F85F
:103020003900D6E7BB3B0008EB3B0008593B0008E2
:103030007047704710B510492022A1F1200000F020
:1030400037FA0E492022A1F1300000F031FAFEF7E4
:103050001DF9FDF729FC0A480A490088FDF77EFDA5
:10306000FEF7C0F807480088FDF760F90649FDF74C
:10307000F3F80649486010BD2802002048020020ED
:10308000240000202A0000200000C8421800002070
:1030900070B505460E4600200024002E06DD55F8CA
:1030A0002410FDF74FF8641CB442F8DBBDE8704013
:1030B0000149FDF7D1B800000000A0402DE9F0471C
:1030C000044688460126B8F1010F22DDA6F1010968
:1030D00054F8260054F82910FDF774F916D2751E1D
:1030E00054F8267054F8290044F8260005E0691CBD
:1030F00054F8250044F821006D1E384654F8251078
:10310000FDF760F9F3D3681C44F82070761C46453F
:10311000DCDBBDE8F087000008B50D48416941F0EF
:1031200001014161406900F0010000900022114658
:103130000E20FEF793FA0E20FEF784FA00221146C5
:103140000F20FEF78BFABDE808400F20FEF77ABA91
:103150000010024000B587B01148816941F020019C
:103160008161816901F020010191816941F00801CB
:103170008161816901F008010191816941F00401D7
:103180008161806900F004000190012002900390A9
:103190000220059002A90348FEF78CF807B000BD95
:1031A00000100240000C0140054804490160002164
:1031B000416040F6FF718160FEF782B90030004047
:1031C000D000002070B594B017484FF080410160E6
:1031D0000024446084604FF6FF75C5600461FFF70A
:1031E000D0F94FF48050109010A90F48FFF724FA3F
:1031F0000D48FFF790FB05200B9020260C960BA99D
:103200000948FFF742FD0896099408A90648FFF708
:1032100085F90194029503940594002201A90248BE
:10322000FFF74DFB14B070BDE000002030B595B045
:103230001A481949016040F2E73141600024846076
:103240004721C1600461FFF79CF94FF48050109052
:1032500010A91248FFF7F0F91048FFF79DFC0B94F6
:1032600020250C950BA90D48FFF70FFD0895802030
:10327000099008A90948FFF751F96020019024201E
:103280000290022003900594042201A90348FFF74D
:1032900015FC15B030BD0000000400401C010020EA
:1032A0000848074901604FF4E13141600021816025
:1032B000C16001610C2242618161C161FFF76FBD94
:1032C000003801405801002010B54FF0804148639C
:1032D0000020486200210448FFF73AFBBDE8104097
:1032E00004210248FFF790BCE00000201C010020F0
:1032F0002DE9F05F304D28608C4669602F4B304AD5
:10330000984200DB034611F1FF4F00D20B466146A5
:10331000FCF76AFF0446A86040F2E737B0F1804F3F
:1033200001DD2F6244E04FF00008B4F1404F3AD283
:10333000B4F1804F37DAEE6801213046FCF7CAFF5E
:103340002146FCF754FF2969FCF7FCFEE969FCF70C
:1033500051FF81462146A869FCF74CFF8346314660
:103360002046FCF741FF6969FCF744FF8246686A22
:10337000FCF7D3FF5146FCF7E5FE5946FCF7E2FEA9
:103380004946FCF7DFFEFCF7E7FF28622E61EC60A0
:103390006862002802DAC5F8208009E0B0F57A7F7B
:1033A00006DB2F6204E014F1FF4F01D3C5F8208043
:1033B000288C80B2BDE8F09F300000200000204142
:1033C0000000C84270B5ACB00D4668434FF0804174
:1033D000019141F61F410291002403943149A1FB60
:1033E00000104009401C0490059401A8FFF7C9F89B
:1033F0004FF48056289628A901A8FFF71DF901A8C7
:10340000FFF789FA082101A8FFF719FB4020269051
:10341000279426A901A8FFF781F81F940120209086
:103420002194239400221FA901A8FFF748FA1E48FF
:10343000109040F2CF20119012944CF6CD404543AD
:10344000E80C1390149410A8FFF79BF8289628A96D
:1034500010A8FFF7F1F810A8FFF79EFB2694279419
:1034600026A910A8FFF75AF860201F90280D209079
:103470002194239404221FA910A8FFF71FFB0B48D7
:10348000007848B1042110A8FFF7BEFB002101A875
:10349000FFF7FCFA2CB070BD042110A8FFF7CBFB9E
:1034A000F4E700001F85EB510004004018000020E5
:1034B0000260C160416081600020704730B44FF00D
:1034C000000C8368002A12D9C46805685B1C2C4470
:1034D0009C4200D8C36844689C4208D011F8014B54
:1034E00085682C7083600CF1010C9445ECD330BCE2
:1034F00060467047F0B4D0F804C005680CE09CF852
:1035000000408C420DD0C46806680CF1010C3444B4
:10351000644501D8D0F80CC08468644501D06D1EA4
:10352000EDD28468644502D1F0BC00207047B5F14B
:10353000FF3F08D0C468066826440CF10104A64287
:103540000ED8C4680CE0F0BC0020704726788E428C
:103550000BD0C6680768641C3E44A64200D8C46805
:103560008668A64201D06D1EF0D28168A14202D1C8
:10357000F0BC00207047B5F1FF3F0AD0C168066873
:103580003144661CB14200D8C66801684C1B00215A
:103590000EE0F0BC002070471CF8017B0D46491C72
:1035A0005755C56807683D44654501D8D0F80CC03B
:1035B000B44506D0994204D205688D4201D9641EF3
:1035C000EAD202290ADC0021C268ACF1010C944560
:1035D00004D2C26803681A44A2F1010CC0F804C006
:1035E000F0BC08467047000030B587B000246D4637
:1035F000FCF7C4FF45F82400641C072CF8DB072106
:103600006846FFF75BFD0521281DFFF741FD0249D4
:10361000886007B030BD0000180000200B4602464D
:10362000FF210148FFF766BF080200202DE9F041A5
:10363000354E002501273078344C012806D17570AD
:10364000062104F14E00FFF7E9FF777094F84E0071
:10365000FF2853D194F85300FF284FD1616C04F137
:103660004F00884794F85210814247D194F84F0098
:103670002749042842D2DFE800F04102172C0878DD
:10368000032800D010B9B4F85000B080D4F84E0030
:10369000A064B4F85200A4F84C00062204F14801DA
:1036A0001C48FFF773FC29E00878032800D010B904
:1036B000B4F850003081D4F84E00A064B4F8520041
:1036C000A4F84C00062204F148011248FFF75EFC02
:1036D00014E00878032800D018B9B4F85000F0803E
:1036E0000F70D4F84E00A064B4F85200A4F84C0057
:1036F000062204F148010748FFF748FCC4F84E5081
:10370000A4F85250BDE8F0810C00002058000020C1
:1037100016000020580100200A4601460148FFF724
:10372000CDBE00000802002001494880704700001B
:103730001800002010B50446FDF7A8FD07482146F3
:103740000088FDF779FAFDF74DFD2046FCF7EEFD08
:103750000349FCF781FD0349486010BD24000020A7
:103760000000C842180000207047000000B58FB06C
:103770000849009108490870002805D004216846CE
:10378000FFF742FA0FB000BD04216846FFF753FA75
:103790000FB000BD000400401800002010B5FDF778
:1037A00007FFBDE81040FEF7B3BE30B591B0092069
:1037B00006904FF4803007900024089401210C916A
:1037C00002250D950E904FF4E0100F9006A8FEF71D
:1037D000ADF90520019002950394680204900594C8
:1037E000022101A8FDF780FFFEF70EF94FF4FA5110
:1037F000B0FBF1F0FEF778FE0020FEF765FE002238
:103800001146501EFDF72AFF11B030BD0E48016869
:1038100041F00101016041680C4A114041600168BA
:1038200021F4102121F080710160016821F48021D0
:103830000160416821F4FE0141604FF41F01816085
:103840000349C00308607047001002400000FFF801
:1038500008ED00E00148FEF778BF0000E00000201E
:1038600030B40268DFF854C0154C164B604506D0E2
:10387000B0F1804F03D0A04201D0984203D122F092
:1038800070024D682A43604506D0B0F1804F03D0E6
:10389000A04201D0984203D122F44072CB681A436F
:1038A00002608A68C2620A688262604501D1096961
:1038B00001630121416130BC70470000002C0140D0
:1038C000000400400008004001238B40D0F820C0D5
:1038D0002CEA03030362036A02FA01F1194301624D
:1038E0007047D0F808C02CF47F4C42EA0322114301
:1038F00041EA0C0181607047826822F07002114336
:1039000041F007018160704710B4026A22F00102A1
:103910000262036A4268D0F818C02CF0700C2CF0D8
:10392000030C0C6844EA0C0C23F002038C6823435C
:103930000E4CA04206D123F00803CC6844EA0303EE
:1039400023F0040309D122F4807222F400724C693E
:1039500044EA02028C6944EA02024260C0F818C0DC
:1039600049684163036210BC70470000002C0140AD
:1039700010B4026A22F010020262036A4268D0F8B0
:1039800018C02CF4E04C2CF4407C0C684CEA042C5D
:1039900023F020038C6843EA04130E4CA04206D1A6
:1039A00023F08003CC6843EA041323F0400309D1D9
:1039B00022F4806222F400624C6942EA84028C693B
:1039C00042EA84024260C0F818C049688163036219
:1039D00010BC7047002C014010B4026A22F48072BF
:1039E0000262036A4268D0F81CC02CF0700C2CF004
:1039F000030C0C6844EA0C0C23F400738C6843EA53
:103A000004230E4CA04206D123F40063CC6843EAA1
:103A1000042323F4806309D122F4805222F400525B
:103A20004C6942EA04128C6942EA04124260C0F80E
:103A30001CC04968C163036210BC7047002C014080
:103A400010B4026A22F480520262036A4268D0F81B
:103A50001CC02CF4E04C2CF4407C0C684CEA042C88
:103A600023F400538C6843EA0433A0F18044B4F596
:103A7000963404D122F480424C6942EA84124260B6
:103A8000C0F81CC049680164036210BC704702683A
:103A9000936823F07003D1F804C04CEA030323F0C9
:103AA0000703D1F800C04CEA030393604A6812F0A0
:103AB0000F0F21D11211082A1ED2DFE802F01D1DBE
:103AC0001D1D0A1E23040B698A68C9680068FFF778
:103AD00008BF0268136AD2F820C02CF0010CC2F8AB
:103AE00020C00268D2F818C02CF0F00C09694CEA2A
:103AF000011191610068036270470A698968006872
:103B000000F005B80A698968006800F013B8036A14
:103B1000D0F820C02CF0010CC0F820C0D0F818C09C
:103B20002CF0F00C4CEA021223F00A0319438261D4
:103B300001627047036A23F010030362D0F818C0D3
:103B4000036A2CF4704C4CEA023223F0A00343EADF
:103B5000011182610162704710B5406A0021C18580
:103B6000C184012180F83910C16B41F01001C1639B
:103B7000FFF7ADF810BD10B50146486A096809683D
:103B800011F0200F0DD10021C18501684A6922F092
:103B900040024A6190F83910322905D0012180F89D
:103BA0003910FFF7D5F910BD122180F83910F8E768
:103BB00010B5406AFFF7E8F910BD10B50146486A34
:103BC0000968096811F0200F02D0FFF731FA10BD23
:103BD0000021C18401684A6922F080024A610068BC
:103BE000C16841F04001C16010BD10B5406AFFF7E7
:103BF00020FA10BD10B50168CA6822F04002CA6000
:103C000090F8391032290BD001684A6922F001027C
:103C10004A61012180F83910FFF70AFA002010BD2F
:103C2000222180F83910F7E710B590F839102229D1
:103C300003D0322901D0022010BD8168B1F5805F28
:103C400011D0016919B30168496801F07F02816AE6
:103C50004B1C83620A70C18D491E0904090CC18581
:103C60001CD0002010BD816A02693AB10268526816
:103C7000D2B20A80816A491C8162ECE7026852680C
:103C8000C2F308020A80816A891C8162E3E7016845
:103C90004A68816A4B1C83620A70DCE70168CA6863
:103CA00022F02002CA6090F83910322910D0016841
:103CB000CA6822F48072CA6001684A6922F001026F
:103CC0004A61012180F83910FFF742F9002010BD48
:103CD000122180F83910F7E72DE9F04104462068F9
:103CE0000169E26821F44051114301612169A06832
:103CF0000843616901432068C26822F4037222F418
:103D0000A0521143C16020684169A26921F4407149
:103D1000114341612068374D3226A0F18041B1F551
:103D20009C3133D0FDF78AFE00EBC00101EB00109F
:103D300061688900B0FBF1F0A5FB00104709FDF7B1
:103D40007DFE00EBC00101EB001061688900B0FB53
:103D5000F1F8FDF773FE00EBC00101EB00106168A4
:103D60008900B0FBF1F0A5FB001040096FF01801CD
:103D7000484308EB800006EB0010A5FB001021680B
:103D8000400967F31F108860BDE8F081FDF76CFE05
:103D900000EBC00101EB001061688900B0FBF1F09D
:103DA000A5FB00104709FDF75FFE00EBC00101EB2A
:103DB000001061688900B0FBF1F8FDF755FE00EBDB
:103DC000C00101EB001061688900B0FBF1F0A5FBB8
:103DD000001040096FF01801484308EB800006EB23
:103DE0000010A5FB00102168400967F31F108860D0
:103DF000BDE8F0811F85EB5190F83910122903D0EE
:103E0000322901D0022070478168B1F5805F0CD063
:103E1000016A4A1C0262026809785160C18C491E1D
:103E20000904090CC18410D019E0016A02680988EC
:103E3000C1F308015160016919B1016A491C0162AD
:103E4000ECE7016A891C0162E8E70168CA6822F0B0
:103E50008002CA600068C16841F04001C160002072
:103E6000704700000148FEF733BF000058010020F2
:103E7000014606220148FFF721B800005801002042
:103E8000014606220148FFF781B8000058010020D2
:103E900002E008C8121F08C1002AFAD17047704713
:103EA000002001E001C1121F002AFBD1704730B48D
:103EB000044600204FF0030C0022E023A15C4840A0
:103EC000002110F0010F02D083EA500000E040080A
:103ED000491CC9B20829F4D3511CCAB26245EDD3BA
:103EE00030BC7047FDF7E6FA0646FDF769FBFFF7C1
:103EF0005CFCFFF72FF9FFF70FF9FFF755F9FFF714
:103F000061F9FFF793F9FFF7CBF91B480068804789
:103F100001221A491A48FEF7D1FF1A48FDF731FB72
:103F20000427194C194D4FF00508FDF7C3FA801B03
:103F3000C82804D9FDF7BEFA0646FFF777FB2178BB
:103F4000012902D002290BD012E027702889FCF742
:103F50001DFF0120FCF70CFFA888FFF7B5F907E06B
:103F600084F800800020FCF703FFE888FFF7ACF935
:103F70000448FDF7D6FAD8E7580000200E000020CC
:103F800058010020D0000020160000200C00002066
:103F900000080000000001020304010203040607F8
:103FA00008090000C43F000800000020B000000025
:103FB000903E000874400008B0000020B8050000E2
:103FC000A03E000800A24A04000C014000000000CE
:103FD00000010000000000000000000001003200AD
:103FE000000020420000000055556666777700000B
:103FF00000000000000000000000000000000000C1
:1040000000000000000000000000FA43CDCC4C3E50
:10401000CDCCCC3D00000000900100003530000800
:1040200029370008A7070008A1070008AD07000806
:1040300035370008F10D0008E50D0008E9350008E6
:104040006D370008E10D000869370008FD0D000814
:10405000C5330008813E0008713E0008F1320008B7
:10406000AF3E00080000000000000000000000005B
:04407000000000004C
:04000005080000ED02
:00000001FF
